:100000000C9468030C9490030C9490030C9490034C
:100010000C9490030C9490030C9490030C94900314
:100020000C9490030C9490030C9490030C942F0662
:100030000C9490030C9490030C9490030C949003F4
:100040000C94E5050C9490030C9490030C9490038D
:100050000C9490030C9490030C9490030C949003D4
:100060000C9490030C9490030101FF030101F7032A
:100070006C00680000000000240027002A00000037
:100080000000250028002B000500893008023802F6
:100090004978681400000500380168010000175312
:1000A00044001613780016131400151020001520B4
:1000B0001000540A03E181867F3E186D830F0F0EF6
:1000C0000183866033186DC3198F1803C38E6033A4
:1000D000186DE330CF1803C39E603630CDE360CF98
:1000E0003006C79E7E3E30CDB360CF300CC6F66082
:1000F0003330D9B660CF33CFCCF66061B0DB1E6051
:10010000CF30D86CE6C061B0DB1E618F19986CC629
:10011000C063B19B0E330F0FB078C6FF7E1F1B0666
:100120001E0F0003050D160D1D1F1D0A100A0E1CC3
:100130000E0C1E0C141A14161F161E131E1E1B1E48
:100140001E1F1E3F213F3A2F3A173D173F213F18F0
:100150001F02040A041F0E04040E1F0A1F0A0E0EBB
:100160001F04110E2E252E2F2A2E262929021F02AA
:10017000081F08150E04040E150E15151B151B047B
:100180000604040C040000000017000300031F0A0B
:100190001F16371A1904130A153A000300000E112E
:1001A000110E000A040A040E0400300004040400C6
:1001B00010001804031F111F121F101D1517111511
:1001C0001F07041F17151D1F151D01011F1F151FD8
:1001D00017151F000A00003200040A110A0A0A114A
:1001E0000A040115020E11171E051E1F150A0E1115
:1001F0000A1F110E1F15111F05010E111D1F041FCF
:10020000111F1108100F1F041B1F10101F061F1EA7
:10021000040F0E110E1F09060E112E1F051A1215BE
:1002200009011F011F101F0F180F1F0C1F1B041B9C
:10023000031C03191513001F11030418111F0002DA
:1002400001022020200001020C121E1F120C0C12B1
:10025000120C121F0C1A14041E05242A1E1F021C45
:10026000141D1020201D1F0814111F101E041E1E17
:10027000021C0C120C3E0A040C123E1E0402141640
:100280000A020F120E101E0E100E1E081E120C1265
:1002900026281E322A26041E21001F00211E0401CA
:1002A00002013F213F05006801380100004A6573E3
:1002B0007A637A652072617A2C2047756E6F21000F
:1002C00040240000000000000000000000000700C3
:1002D00000001F7DBFFFFDFFDF3831C7E91637443F
:1002E00031EC209249B410452484609249A494D5FD
:1002F000249247C648A495DC6792444C4AA49DC406
:10030000C482674C0A24995CC48220460A24935410
:10031000649220531B241045309230D9B1263045C9
:1003200093921FFFFFFFFFFFFEFE00000000000092
:100330000000000000000000000000000001FF00BD
:1003400000000000000F00800000000000180040C6
:1003500000000000007000A00000000001C0F0B02C
:100360000000000003000D18000000000E0004084B
:100370000000000018000108000000003000010823
:10038000000000006700018C00000000CF8001CE5B
:100390000000000189800363000000011B80073119
:1003A000000000031F800EA9800000060F803AA005
:1003B0008000000C070001E0C000003800000000D1
:1003C000400000E000000000400000860000000047
:1003D0004000018F00000000400001198000000073
:1003E00040004E69656565656521004D6C656D2150
:1003F0000008087EFFFBFFFF7E446608087EFFFBC7
:10040000FFFF7E223308087E818581817E223308AA
:10041000083C6EDBFF8181FF7E08087E818581813B
:100420007E446608083C52A581FFFF817E527573A9
:100430007A616A2C204772756E696F2100425552AD
:10044000474552204D6F646521004500680100005A
:10045000F6E8DBCFC3B8AEA49B928A827B746E6849
:10046000625C57524E4945413E3A3734312E2C2971
:10047000272523210A0A153A49676E6F7265006DB8
:10048000560A0A504C45415345205455524E204F70
:10049000464620004C4F5720424154544552592162
:1004A000200003053F213F1208120A100A0E1C0EFD
:1004B0000C1E0C141A14161F161E131E1E1B1E1EB5
:1004C0001F1E3F213F3A2F3A173D173F213F181F6C
:1004D00002040A041F0E04040E1F0A1F0A0E0E1F38
:1004E00004110E2E252E2F2A2E262929021F02083E
:1004F0001F08150E04040E150E15151B151B0406FA
:1005000004040C040000000017000300031F0A1F6E
:1005100016371A1904130A153A000300000E1111B8
:100520000E000A040A040E04003000040404001043
:10053000001804031F111F121F101D151711151F7E
:1005400007041F17151D1F151D01011F1F151F175C
:10055000151F000A00003200040A110A0A0A110AD3
:10056000040115020E11171E051E1F150A0E110A91
:100570001F110E1F15111F05010E111D1F041F1144
:100580001F1108100F1F041B1F10101F061F1E0431
:100590000F0E110E1F09060E112E1F051A12150936
:1005A000011F011F101F0F180F1F0C1F1B041B031F
:1005B0001C03191513001F11030418111F00020159
:1005C000022020200001020C121E1F120C0C12121D
:1005D0000C121F0C1A14041E05242A1E1F021C14C0
:1005E0001D1020201D1F0814111F101E041E1E02A6
:1005F0001C0C120C3E0A040C123E1E040214160AB5
:10060000020F120E101E0E100E1E081E120C1226C5
:10061000281E322A26041E21001F00211E0401026A
:10062000013F213F172B152010204C4F41444552CC
:1006300000172B16201314000A4E6F20534420631A
:10064000617264206F720A6E6F204C4F41444552B4
:100650002E4845580A0A153A45786974001D204607
:100660006C617368696E670A20206C6F61646572E3
:100670002E2E2E0A0A444F4E2754205455524E20F7
:100680004F464621000000000023002600290004F8
:100690000404040404040402020202020203030329
:1006A0000303030102040810204080010204081023
:1006B00020010204081020000000080002010000D0
:1006C0000304070000000000000000003F1A391A70
:1006D00011241FBECFEFD8E0DEBFCDBF12E0A0E0F7
:1006E000B1E0EEEBFEE302C005900D92A03EB10733
:1006F000D9F725E0A0EEB2E001C01D92A739B207FC
:10070000E1F713E0C7E6D3E004C02197FE010E94A1
:10071000641EC636D107C9F70E94A6120C94521F58
:100720000C9400000895CF92DF92EF92FF920F9306
:100730001F93CF93DF936C017A018B01C0E0D0E06F
:10074000CE15DF0589F0D8016D918D01D601ED91AF
:10075000FC910190F081E02DC6010995892B11F4DF
:100760007E0102C02196ECCFC701DF91CF911F918E
:100770000F91FF90EF90DF90CF900895089580E063
:1007800090E008950E94341F0F931F93CF93DF933F
:10079000EC0188819981009729F02A813B812617F5
:1007A000370788F48B016F5F7F4F0E946A1E0097A6
:1007B00061F0998388831B830A832C813D81232BDD
:1007C00011F4FC01108281E001C080E0DF91CF9143
:1007D0001F910F910895EF92FF920F931F93CF9364
:1007E000DF93EC017B018A01BA010E94C4032881D6
:1007F000398181110DC02115310519F0C9010E94FF
:10080000F61A198218821D821C821B821A8206C067
:100810001D830C83B701C9010E944B1FCE01DF91DC
:10082000CF911F910F91FF90EF900895DC01ED9112
:10083000FC910190F081E02D09946115710579F02A
:10084000FB0101900020E9F73197AF01461B570BE0
:10085000DC01ED91FC910280F381E02D099480E0B0
:1008600090E008954F925F926F927F92EF92FF9285
:100870000F931F93CF93DF93CDB7DEB7A1970FB63A
:10088000F894DEBF0FBECDBF7C01FA01CB0119A2E7
:10089000223008F42AE08E010F5D1F4F422E512CAA
:1008A000612C712CBF01A30192010E94C01DF901AE
:1008B000CA01015011096A3014F4605D01C0695C1D
:1008C000D8016C93232B242B252B61F7B801C7018A
:1008D0000E941D04A1960FB6F894DEBF0FBECDBFD7
:1008E000DF91CF911F910F91FF90EF907F906F90CC
:1008F0005F904F900895833081F028F4813099F013
:100900008230A1F008958730A9F08830B9F08430A2
:10091000D1F4809180008F7D03C0809180008F771B
:1009200080938000089584B58F7702C084B58F7D51
:1009300084BD08958091B0008F7703C08091B0008E
:100940008F7D8093B00008951F93CF93DF93282F5E
:1009500030E0F901E954F94F8491F901ED55F94F6F
:10096000D491F901E157F94FC491CC23C9F0162F66
:1009700081110E947B04EC2FF0E0EE0FFF1FE25884
:10098000FF4FA591B4918FB7F894111105C09C91B8
:10099000ED2FE095E92302C0EC91ED2BEC938FBF96
:1009A000DF91CF911F910895CF93DF9390E0FC01E9
:1009B000ED55F94F2491FC01E157F94F84918823BB
:1009C00061F190E0880F991FFC01EC58FF4FC59131
:1009D000D491FC01E258FF4FA591B491611109C077
:1009E0009FB7F8948881209582238883EC912E23E9
:1009F0000BC0623061F49FB7F8943881822F8095E4
:100A000083238883EC912E2B2C939FBF06C08FB736
:100A1000F894E8812E2B28838FBFDF91CF91089522
:100A20001F93CF93DF93182FEB0161E00E94D40452
:100A3000209711F460E004C0CF3FD10539F461E0A4
:100A4000812FDF91CF911F910C94A404E12FF0E04E
:100A5000E954F94FE491E330F9F048F4E130B9F0AA
:100A6000E230A1F584B5806284BDC8BD34C0E730F2
:100A7000E9F0E83019F1E43049F5809180008062B6
:100A800080938000D0938B00C0938A0024C084B5EB
:100A9000806884BDC7BD1FC080918000806880933E
:100AA0008000D0938900C093880015C08091B00069
:100AB00080688093B000C093B3000DC08091B000F7
:100AC00080628093B000C093B40005C0C038D105E7
:100AD0000CF0B5CFAFCFDF91CF911F9108958E303D
:100AE00008F08E508770806480937C0080917A003B
:100AF000806480937A0080917A0086FDFCCF80919B
:100B000078002091790090E0922B08953FB7F894F7
:100B10008091F9029091FA02A091FB02B091FC023F
:100B200026B5A89B05C02F3F19F00196A11DB11D48
:100B30003FBFBA2FA92F982F8827820F911DA11D83
:100B4000B11DBC01CD0142E0660F771F881F991FC0
:100B50004A95D1F708958F929F92AF92BF92CF920C
:100B6000DF92EF92FF926B017C010E9486054B01A0
:100B70005C01C114D104E104F104F1F00E94860586
:100B8000DC01CB0188199909AA09BB09883E934069
:100B9000A105B10570F321E0C21AD108E108F108FE
:100BA00088EE880E83E0981EA11CB11CC114D104EC
:100BB000E104F10419F7DDCFFF90EF90DF90CF90C3
:100BC000BF90AF909F908F9008951F920F920FB695
:100BD0000F9211242F933F938F939F93AF93BF93C3
:100BE0008091020390910303A0910403B091050347
:100BF0003091F80223E0230F2D3720F40196A11D38
:100C0000B11D05C026E8230F0296A11DB11D20933A
:100C1000F8028093020390930303A0930403B0931C
:100C200005038091F9029091FA02A091FB02B09124
:100C3000FC020196A11DB11D8093F9029093FA0266
:100C4000A093FB02B093FC02BF91AF919F918F9153
:100C50003F912F910F900FBE0F901F9018951F92EC
:100C60000F920FB60F9211242F936F937F938F9350
:100C70009F936091FF02662359F18091F7028F5F85
:100C80008093F70290910003891710F12091FD02E3
:100C900081E028272093FD021092F7028091010342
:100CA000882369F080910A0193E4899F802D1124A3
:100CB000895B80930A010E94301E9093FE022223DA
:100CC00029F08091FE028093B40002C080E0FBCF47
:100CD0009F918F917F916F912F910F900FBE0F90E9
:100CE0001F901895FC0161110DC0178A158A14A276
:100CF00013A2108E1092FE021092FF021092FD02BB
:100D00001092B4000895EF92FF920F931F93CF9328
:100D1000DF931F92CDB7DEB77C018B01411105C077
:100D200060E049830E947206498150E0FA01EE0FAB
:100D3000FF1FEE0DFF1D16870587DA011996AA0F12
:100D4000BB1FAE0DBF1D1D921C92F701E40FF51FD6
:100D500081E0818389E0868B118E138E158E0F9032
:100D6000DF91CF911F910F91FF90EF9008954F92D7
:100D70005F926F927F928F929F92AF92BF92CF922B
:100D8000DF92EF92FF920F931F93CF93DF93F901BE
:100D9000C49031965491EC0108A164350CF018C14F
:100DA0000C2C000CDD08A62F062E000CBB0B7D01C1
:100DB000EC0CFD1C1E141F040CF00AC140330CF097
:100DC00007C1A52E842E042E000C9908F401E50F0E
:100DD000F11D57FDFA951E161F060CF0F9C02E5F87
:100DE0003F4FE6012796D7FD279673E0D595C79527
:100DF0007A95E1F747FF0AC0A52EA40EC89DA00171
:100E0000C99D500D1124241B350B40E0EA2D0A2CFE
:100E1000000CFF0BE40FF11D47FDFA95F1971CF054
:100E200050E3A52EA41A67FD60E0F701E535F10552
:100E300014F0E4E5F0E07E2FFC01D484D426862F64
:100E4000062E000C990BFC01EA1BFB0BDF017F0156
:100E5000F7E0EF22FF24E0E8F0E002C0F595E79527
:100E6000EA94E2F71E2FB7FD179653E0B595A795C4
:100E70005A95E1F72A0F3B1FE42FE77051E001C0BC
:100E8000550FEA95EAF7459545954595B4E54B022A
:100E9000800D911D11248A5F9C4FC12C0A2C000CDF
:100EA000BB08992493942E015524EC2DF0E0EA150B
:100EB000FB050CF08DC0F90144910130E1F47C0197
:100EC000A12F862E881AB82DBE0DB71708F077C04F
:100ED000B42FBA2321F0E701B881B52BB883B0E075
:100EE000B595A795109719F431964491A0E8DFEFD6
:100EF000ED1AFD0AE8CF01111FC0752E70947C0118
:100F0000A12FF901862E881AB82DBE0DB71708F04B
:100F100056C0B42FBA2321F0E701B881B721B883B6
:100F2000B0E0B595A795109719F431964491A0E8D3
:100F3000DFEFED1AFD0AE8CF033031F07C01A12F7D
:100F4000F901862E881A37C0752E7094862E7C0182
:100F5000A12FF9018716D8F4B42FBA2359F0E7016D
:100F6000B881682C6D2460FE02C0B52B02C0B72189
:100F7000E701B883B0E0B595A795109719F43196BD
:100F80004491A0E88394DFEFED1AFD0AE3CFD92462
:100F900016C0B42FBA2321F0E701B881B527B88372
:100FA000B0E0B595A795109719F431964491A0E853
:100FB000DFEFED1AFD0AB82DBE0DB71750F3550F30
:100FC00019F48C5A9F4F51E0C394240D351D6DCFF9
:100FD000DF91CF911F910F91FF90EF90DF90CF9015
:100FE000BF90AF909F908F907F906F905F904F9049
:100FF0000895FC01643508F053C0403308F050C038
:1010000090A1742F759575957595262F062E000C59
:10101000330B542F57709230A1F4F901EA5FFC4F63
:1010200084E57802E00DF11D1124808190E0052E09
:1010300002C0959587950A94E2F78095982F917054
:101040000AC0933041F484858170462740954170F1
:10105000841303C014C0911112C084E57802200DDE
:10106000311D1124F901EA5FFC4F81E090E001C0DD
:10107000880F5A95EAF780959081892310C084E5FE
:101080007802200D311D1124F901EA5FFC4F81E047
:1010900090E001C0880F5A95EAF79081892B8083F0
:1010A0000895BF92CF92DF92EF92FF920F931F931A
:1010B000CF93DF931F92CDB7DEB77C01D62EC42E1F
:1010C000002E000C110B040F111D47FD1A954C2D1D
:1010D0000C2C000C550B401751077CF4B12CB216A8
:1010E00054F46B2D6D0D4C2DC70129830E94F90717
:1010F000B3942981F4CFC394EACF0F90DF91CF91BD
:101100001F910F91FF90EF90DF90CF90BF900895C7
:101110006F927F928F929F92AF92BF92CF92DF9207
:10112000EF92FF920F931F93CF93DF93EC0188A070
:1011300064350CF080C040330CF07DC0EC81F0E0F1
:1011400031970E9FC0010F9F900D1124860F911DA6
:1011500067FD9A95181619060CF06DC0ED81E09F99
:10116000F0011124E40FF11D47FDFA951E161F062C
:101170000CF061C0102FE42EF62E962EB62EC22E45
:10118000D12CEB2DEF190E2E000CFF0B8C8190E073
:10119000E817F9070CF04EC00197E817F90779F046
:1011A000C89E9001C99E300DD89E300D1124E20FCB
:1011B000F31F8E8D9F8DE80FF91F749001C0712C65
:1011C0006E2CAE2C2A2D2E19022E000C330B8D8185
:1011D00090E0281739075CF570FE10C0113031F42B
:1011E0004A2D6B2DCE010E94F9071DC0012F212F22
:1011F000462D692DCE010E94510815C089A198A1E4
:10120000891789F088A3113031F44A2D6B2DCE0156
:101210000E94F90707C0012F212F462D692DCE010D
:101220000E94510888A27694A394610ECBCFB39408
:10123000910EA7CF88A2DF91CF911F910F91FF90C0
:10124000EF90DF90CF90BF90AF909F908F907F9066
:101250006F9008950F93CF93DF93EC016A3019F4E8
:101260002D8198851FC06D3019F1262F08854A857C
:1012700069850E94880828853C818985329F800D78
:10128000112489879F81992399F0082E000C990BCE
:1012900044E550E0239F401951091124481759078C
:1012A0003CF49D818A85299F800D11248A871986A7
:1012B00081E090E0DF91CF910F9108954F925F927E
:1012C0006F927F928F929F92AF92BF92CF92DF9256
:1012D000EF92FF920F931F93CF93DF9300D000D034
:1012E0001F92CDB7DEB7409186055091870560917A
:1012F0008805709189052FB7F89480910203909129
:101300000303A0910403B09105032FBF481B590BA1
:101310006A0B7B0B8091850590E0A0E0B0E0009126
:1013200081051091820520918305309184058417F1
:101330009507A607B70730F40115110521053105FA
:1013400009F036C3012B022B032B09F02FC3809128
:101350001D0581508E3F30F580911C05813039F597
:10136000809130058F5F6091310587FD09C0082E9F
:10137000000C990B70E06F5F7F4F0E943C1E682F3E
:101380006093300581E396E090938B0580938A0506
:1013900088E480938C0540E06AE474E08BE295E099
:1013A0000E94830680911D0581508E3F70F48091CC
:1013B0001B05813009F0A8C384E296E090938B0569
:1013C00080938A0588E480938C0580E00E94FC105D
:1013D00080912C05882309F4ADC0809140058111CE
:1013E000A9C08091380590913905E0913D05F091B3
:1013F0003E05EE0FFF1FE80FF91F4591549141156F
:10140000510501F520913C05222331F010923E0553
:1014100010923D05FC0114C010922C0580912B0503
:10142000882341F080E00E94FC10E0913D05F0919E
:101430003E052FC060E08BE295E00E9472067AC004
:10144000459154919A01369527953695279540FFF9
:1014500051C0CA0116E0969587951A95E1F78F71EC
:10146000952F96959695969590512F70223071F103
:10147000F8F4211117C08B3008F08AE08093410501
:10148000E0913D05F0913E053196F0933E05E093E5
:101490003D05EE0FFF1F8091380590913905E80F4B
:1014A000F91FCECF213061F760E00E943D11E8CFF7
:1014B0002330B1F0243021F720912F05829F802D19
:1014C00011248093480590934905DACF20912F0588
:1014D000829F802D11248093440590934505D0CFA1
:1014E00020912F05829F802D112480934605909393
:1014F0004705C6CF2F7320933F0580912F05859F09
:10150000802D1124809340051092500510924F05B4
:1015100010924E0581E0809342058093FD02109267
:10152000430580913D0590913E05019690933E05BF
:1015300080933D0580914205882309F4F3C0809192
:101540004005811106C060E08BE295E00E947206C2
:10155000E9C081508093400580915005811148C0B9
:1015600020914E0530914F052F5F3F4FC901880FE5
:10157000991FE0914A05F0914B05E80FF91F65911D
:101580007491862F877080935105AB01E3E05695E7
:101590004795EA95E1F7CA0196958795972F969515
:1015A0009695909352058F7390912F05899F802D6A
:1015B00011248093500541704093010330934F05EF
:1015C00020934E0580914C0590E02817390780F054
:1015D00020914D05222339F0821B910990934F05EC
:1015E00080934E0505C060E08BE295E00E94720694
:1015F000809150058150809350058091430521E0F2
:10160000280F2093430540913F0530915205340F38
:1016100080913705380F30932D056091460566237C
:1016200071F070E0822F022E000C990B0E943C1E7C
:1016300080914705869F300D112430932D058091B0
:101640002D0590E0849664E270E00E943C1E809339
:101650002D053091410530932E0560914405662398
:1016600081F0062E000C770B822F022E000C990BB6
:101670000E943C1E80914505869F300D11243093B9
:101680002E05609148056623A1F0822F220F990B49
:1016900070E00E943C1ECB0162E070E00E943C1EA4
:1016A0002091490590912E05289F900D112490932B
:1016B0002E0580912E054F3341F08A300CF089E0E1
:1016C00087FD80E080932E0502C010922E05F894CD
:1016D000E0912D05F0E0E05BFB4FE491E093000327
:1016E00030912E0520915305320390011124409131
:1016F00051054203C001439F900D11240090300515
:1017000002C0880F991F0A94E2F797FF02C0815820
:101710009F4F880F892F881F990B8093FF0280931A
:10172000FE02789480918C05882309F48DC08C305A
:1017300020F49CE0E92EE81A01C0E12CFF24F39488
:10174000F0925C0510927405109275053091590560
:101750004DE2D42E1D2D131B1E0D03E0030F2EE4AE
:10176000412F63E084E595E03D830E9451083D816F
:101770000CEF030F1D5F202F41E0612F80E50E94D9
:101780000E12202F42E0612F83E00E940E12F09291
:101790007405F09275050091590513E0100FD01AE9
:1017A000DE0C23E04D2D622F84E595E02D830E9411
:1017B000F9072D812F5F2135A9F71D0DFF24FA941C
:1017C000F10E23E04F2D622F84E595E02D830E94DA
:1017D000F9072D812F5F2135A9F7035033E0D30E90
:1017E000402F6D2D80E00E94F611402F6D2D83E576
:1017F0000E94F61141E06D2D83E00E94781142E0D5
:101800006D2D80E50E947811145044E0612F80E531
:101810000E94781148E0612F83E00E94781184E0F3
:1018200080935D0580915905E81A8E2D815D809326
:101830005E0580918A0590918B050E94D30E809160
:101840008C05815080938C05809122059091230511
:10185000892B09F483C011E010937405109275056B
:101860009091580585E5891B80935D0510925E0572
:1018700060911F05613009F452C030F080911E055F
:10188000653008F064C05FC060E08BE295E00E94C4
:10189000720610922C0510935C05E2EAF4E0E491E4
:1018A000EF5FE0935805E3EAF4E0E491EF5FE09343
:1018B000590584EA94E09093730580937205109221
:1018C00023051092220510925A0518EA0E945E091B
:1018D0008823E1F384E994E00E94D30E409120052F
:1018E0005091210560E070E02AE084E595E00E94D7
:1018F00032048FE794E00E94D30E612F62956F70DF
:1019000070E084E595E00E94C61084E794E00E94B0
:10191000D30E80911B05813009F0FCC01FC080915F
:10192000770590917805A0917905B0917A058F702F
:101930009927AA27BB270897A105B10510F467E0EE
:1019400009C068E707C0882349F06B5F03C088239C
:1019500029F06FE284E595E00E9416040E94930E40
:1019600080915A0581110EC088EF91E0E6E0F3E026
:10197000DF019C011D9221503040E1F710925D057E
:1019800010925E050E948605609381057093820522
:10199000809383059093840520917D0530917E0589
:1019A000621B730B70937C0560937B0580E0CCC059
:1019B0002FB7F8948091020390910303A091040340
:1019C000B09105032FBF20918505820F911DA11DA8
:1019D000B11D8093860590938705A0938805B093E9
:1019E00089058091770590917805A0917905B0914E
:1019F0007A050196A11DB11D809377059093780516
:101A0000A0937905B0937A05109281051092820512
:101A100010928305109284050E94860560937D05CF
:101A200070937E0580937F059093800580910705D4
:101A3000909108052FE0289F8001299F100D112407
:101A400085E10E946F05800F911F24E09695879590
:101A50002A95E1F7909308058093070520910605E4
:101A6000222309F44BC060910A05262F30E040E0A4
:101A700050E029833A834B835C83C0900B05D12CC3
:101A8000E12CF12C40910E0550910F054A01A12C3B
:101A9000B12C20910C0530910D052901612C712C80
:101AA0008217930728F09C014817590708F49A01F8
:101AB000C901A0E0B0E09C01AD0124193509460937
:101AC000570969817A818B819C816C197D098E0906
:101AD0009F090E94201EA501940124193509460979
:101AE00057090E94571DC20ED31EE41EF51EC09258
:101AF00009056C2D70E085E00E9410050E94200E03
:101B00000E94691281E020C0893209F05ECC0E94F7
:101B1000040F5BCC115009F0D9CE60E070E085E095
:101B20000E94100583B7817F846083BF83B7816083
:101B300083BF83B7816083BF889583B78E7F83BF60
:101B400083B78E7F83BFC2CE0F900F900F900F9000
:101B50000F90DF91CF911F910F91FF90EF90DF9049
:101B6000CF90BF90AF909F908F907F906F905F903D
:101B70004F900895DF92EF92FF920F931F93CF93B0
:101B8000DF937C01EB016230710520F48B01C2E030
:101B9000D0E002C002E010E0F7011182108213824F
:101BA00012821582148240E050E068E772E0C701BB
:101BB0000E94EB03809191059091920508171907F7
:101BC000B0F58C179D0708F4EC01E0918D05F091BC
:101BD0008E05EC0FFD1FD080108260918D057091F5
:101BE0008E05600F711F6115710561F0FB01019099
:101BF0000020E9F73197AF01461B570BC7010E9440
:101C0000EB030EC0F70180819181009711F00E94D3
:101C1000F61AF70111821082158214821382128241
:101C200080918D0590918E05C80FD91FD882C7016C
:101C3000DF91CF911F910F91FF90EF90DF9008956A
:101C4000CF92DF92EF92FF920F931F93CF93DF9388
:101C5000C0E1D5E007E115E0FF24FA9497E0E92E12
:101C6000E00E62E088810E94D404288130E0F9010E
:101C7000E954F94F8491F901ED55F94FC490F901F8
:101C8000E157F94FD490DD2071F081110E947B045F
:101C9000ED2DF0E0EE0FFF1FEB57F94FA591B4913A
:101CA000EC91EC21B1F4F80180818F5F808360E0DA
:101CB00088810E94D40421960F5F1F4FE012D1CF7C
:101CC000DF91CF911F910F91FF90EF90DF90CF9018
:101CD0000895F8018081882371F3F8018F3F11F492
:101CE0001082E5CFF082E3CFCF93C82FF89460E065
:101CF000809163050E94A4048091640518161CF469
:101D000060E00E94A404CEBD00000DB407FEFDCF2C
:101D10008EB58091640518161CF461E00E94A4043D
:101D20007894CF9108950F931F93CF93809160057E
:101D30008F5F8093600506E013E0C0E08C2F806425
:101D40000E94740E80E80E94740E61E08091630529
:101D50000E94A4048091640518161CF460E00E949F
:101D6000A40480E090E0F801E80FF91F20812EBD67
:101D700000000DB407FEFDCF2EB501968435910508
:101D800091F78091640518161CF461E00E94A40488
:101D9000CF5F0C5A1F4FC63089F680E4CF911F9158
:101DA0000F910C94740E0F931F93CF93DF938C01BC
:101DB000C0E0D0E0F801EC0FFD1F6491662371F0E4
:101DC000E0915405F09155050190F081E02D84E5F6
:101DD00095E00995892B11F02196ECCFCE01DF918A
:101DE000CF911F910F910895CF93DF930E94D30E4F
:101DF000EC0165ED72E084E595E00E941D048C0F16
:101E00009D1FDF91CF91089588EF91E0E6E0F3E028
:101E1000DF019C011D9221503040E1F710925D05D9
:101E200010925E058DE596E00E94D30E0E94930EFF
:101E30008CB583608CBD8DB58E7F8DBD88ED92E0B5
:101E4000EEEFFFE3099510925A0588E396E00E94B1
:101E5000F40E0E94930E0E94200E80911B0581308B
:101E600039F062E370E080E090E00E94AB05F3CFD0
:101E70000895CF93DF93BC0184E595E00E941D0493
:101E8000EC0165ED72E084E595E00E941D048C0F85
:101E90009D1FDF91CF910895CF92DF92EF92FF9235
:101EA000CF93DF936C01990FEE08FF08F7FE16C081
:101EB0006DE284E595E00E941604EC014427552765
:101EC000BA014C195D096E097F092AE084E595E0A5
:101ED0000E9432047C01EC0EFD1E08C02AE0B7010E
:101EE000A60184E595E00E9432047C0165ED72E074
:101EF00084E595E00E941D048E0D9F1DDF91CF911A
:101F0000FF90EF90DF90CF9008950F931F93CF93A2
:101F1000DF93009711F480E029C0FC0101900020BC
:101F2000E9F73197E81BF90B0091910510919205A3
:101F30003097D9F0EC010E0F1F1FB8018DE895E026
:101F40000E94C403882339F320918D0530918E05BA
:101F50008091910590919205BE01820F931F0E947E
:101F60004B1F109392050093910581E0DF91CF9173
:101F70001F910F910895CF93DF93EC0180918D0510
:101F800090918E050097C9F068817981611571057E
:101F900091F040918F05509190052C813D81421721
:101FA000530748F00E944B1F8C819D8190939205AE
:101FB0008093910518C00E94F61A888199819093A8
:101FC0008E0580938D058A819B81909390058093E7
:101FD0008F058C819D819093920580939105198244
:101FE00018821B821A821D821C82DF91CF91089574
:101FF0002F923F924F925F926F927F928F929F9219
:10200000AF92BF92CF92DF92EF92FF920F931F9306
:10201000CF93DF9300D000D000D0CDB7DEB7282E0D
:10202000762F7A0121111FC09A01462F682F84E56F
:1020300095E026960FB6F894DEBF0FBECDBFDF91B8
:10204000CF911F910F91FF90EF90DF90CF90BF90B5
:10205000AF909F908F907F906F905F904F903F9048
:102060002F900C94B706FA01949131963491492E31
:10207000512C6201F7E0CF0ED11C83E0D594C794B8
:102080008A95E1F71D8240E8A42EB12C832E912C75
:1020900091509E83ED818E2FEE0F990B841595053F
:1020A0000CF05BC00D8107FD095F05950595059551
:1020B0008D81877887FF03C08150886F8F5F3501DE
:1020C00002C0759467948A95E2F7312C002E000CBB
:1020D000110B0E5F1F4F4E818D81481B4983832D4D
:1020E000032C000C990B881599059CF58C9DF0012B
:1020F0008D9DF00D9C9DF00D1124E00FF11FEE0D54
:10210000FF1DE491F0E0E621F721EF2B01F12223FE
:1021100061F0522F537020FF02C0698101C06D81B0
:1021200021FF07C0432F431905C0432D6D8150E0A7
:1021300001C0432D620D470F84E595E03A835B8330
:102140007C830E94F9075B81252F7C813A8133943F
:10215000C6CF9D819F5F9D839DCF26960FB6F89435
:10216000DEBF0FBECDBFDF91CF911F910F91FF90CA
:10217000EF90DF90CF90BF90AF909F908F907F9027
:102180006F905F904F903F902F900895CF92DF9285
:10219000EF92FF920F931F93CF93DF936B01770F13
:1021A000EE08FF08F7FE1BC0EC016DE20E9416046A
:1021B0008C0144275527BA014C195D096E097F0926
:1021C0002AE0CE010E943204800F911FDF91CF914F
:1021D0001F910F91FF90EF90DF90CF9008952AE02C
:1021E000B701A601DF91CF911F910F91FF90EF9062
:1021F000DF90CF900C943204CF93DF93482F50E0C0
:10220000EA01CA5FDA4F9DA19923A1F19EA1911124
:1022100031C09EA5FA01EE0FFF1FE35FFA4F35A113
:1022200026A1E32FF22FE90FF11DE90FF11D2591F2
:1022300034912F3F9FEF390711F41DA21BC039AB1A
:10224000440F551FFA01E05FFA4F3327220F331F67
:1022500005A0F6A1E02DE20FF31F659174918111A5
:1022600005C040E08BE295E00E94830629968DA18F
:102270008F5F8DA3DF91CF91089570E0DB01AA0FEE
:10228000BB1FAA5FBA4FD4962C91D497D5969C9138
:10229000D597E22FF92FE80FF11DE80FF11D2591D9
:1022A00034915F9696963C932E939597F90185917C
:1022B000949190912F05989F802D11246A5F7A4FF9
:1022C000FB01B19685A3F901A591B4914B2F50E084
:1022D000E82FF0E04E175F0720F4F90125913491C3
:1022E000832FFB01B296899F802D112485A3089529
:1022F000AF92BF92CF92DF92EF92FF920F931F9314
:10230000CF93DF93182F062FC1E0D3E08AEFD82EAA
:102310009EEFE92E842F8470C82E842F8270B82EF1
:10232000842F8870A82E4170F42E8C2F880F8F5F19
:10233000E80ECC2081F04D2F400F6C2F610F84E50B
:1023400095E00E94F9074C2F400F6D2F610F84E537
:1023500095E00E94F907BB2081F0402F4D1B6C2FA8
:10236000610F84E595E00E94F907402F4C1B6D2F0B
:10237000610F84E595E00E94F907AA2081F04C2FB7
:10238000400F612F6D1B84E595E00E94F9074D2FEA
:10239000400F612F6C1B84E595E00E94F907FF2038
:1023A00081F0402F4C1B612F6D1B84E595E00E944E
:1023B000F907402F4D1B612F6C1B84E595E00E94AF
:1023C000F907CD1744F4E7FC04C0D150D394D3945B
:1023D000ED0CCF5FAACFDF91CF911F910F91FF90AE
:1023E000EF90DF90CF90BF90AF9008950F931F9321
:1023F000CF93DF93182F062FD42FC0E0CD174CF4C6
:102400004C2F400F612F84E595E00E94F907CF5FC4
:10241000F5CFDF91CF911F910F9108959F92AF92C9
:10242000BF92CF92DF92EF92FF920F931F93CF93C1
:10243000DF93F82EE62EB22E03E0020FD0E0C3E0C9
:102440008AEFC82E1EEF842F8170982EAA24A394A1
:10245000A20E4270D42EDF5F802F8B19180F9920A7
:1024600081F04C2F440F4A0D6E2D6C1B8D2F8F0D5C
:102470000E94F611402F6E2D6D1B8C2F8F0D0E9428
:10248000F611DD2081F04C2F440F4A0D6E2D6C1B90
:102490008F2D8D1B0E94F611402F6E2D6D1B8F2DE1
:1024A0008C1B0E94F611DC1744F417FD04C0C150C8
:1024B000C394C3941C0D0E5FCECFDF91CF911F91BB
:1024C0000F91FF90EF90DF90CF90BF90AF909F90D3
:1024D00008958091220590912305892BB1F1809177
:1024E0002A058F7169F584E10E946F05BC01990F7F
:1024F000880B990B0E94481C26EE3FE34EEC50E4FB
:102500000E94831C0E94F11D9B0170932105609322
:102510002005672B91F084E080931F05E2E2F5E04F
:1025200080E0419151912417350718F480931F05DD
:1025300008958F5F8430A9F703C08FEF80931F0544
:1025400080912A058F5F80932A050895CF93DF93AA
:1025500000D000D000D0CDB7DEB7789484B58260CB
:1025600084BD84B5816084BD85B5826085BD85B537
:10257000816085BD80916E00816080936E001092B5
:102580008100809181008260809381008091810030
:1025900081608093810080918000816080938000C1
:1025A0008091B10084608093B1008091B00081601F
:1025B0008093B00080917A00846080937A0080914B
:1025C0007A00826080937A0080917A0081608093A3
:1025D0007A0080917A00806880937A001092C1001E
:1025E00082E38093850581E090E0A0E0B0E08093F5
:1025F000810590938205A0938305B09384058FEFA6
:1026000080937605E0E8F7E7259134912130304C4E
:1026100009F049C0E6E9F7E7E491E0935F05E7E9EF
:10262000F7E7E491E0930A05E8E9F7E7E491E0933E
:102630000B05E9E9F7E78591949190930D05809357
:102640000C05EBE9F7E78591949190930F05809342
:102650000E0588E080933105EEE9F7E7E491E09319
:102660003005EFE9F7E7E491E0937605E0EAF7E774
:10267000859194919093230580932205E2EAF7E7F0
:10268000859194919093250580932405E4EAF7E7DA
:10269000859194919093270580932605E6EAF7E7C4
:1026A000859194912CC09CE390935F0510920A054C
:1026B00080930B0580E293E090930D0580930C05C9
:1026C00084ED93E090930F0580930E0588E080934E
:1026D0003105809330058CEA9DE09093230580932B
:1026E00022058EED9DE0909325058093240584E7D7
:1026F0009EE090932705809326058CE39FE09093BE
:1027000029058093280511E0109306056FEF70E00E
:1027100085E00E94100588E08093100589E0809391
:10272000110587E08093120586E08093130504E08D
:102730000093140582E08093150581E180931605CE
:102740000E94200E8CE39FE090932105809320054A
:1027500000931F0510932A058BE0809362058DE09E
:102760008093610580E1809363058EE08093650529
:102770008FE08093640510935C05109374051092AC
:10278000750510935B05E2EAF4E0E491EF5FE093F6
:102790005805E3EAF4E0E491EF5FE093590584EA39
:1027A00094E090937305809372051FB7F89480911D
:1027B000E202811127C0E9E9F6E08491EDEAF6E052
:1027C0009491E82FF0E0EE0FFF1FEC58FF4FA5911A
:1027D000B491EC91E92321F461E08AE00E94A40421
:1027E00061E08AE00E94D4048CB580618CBD8CB518
:1027F00080648CBD61E08DE00E94D40461E08BE0D8
:102800000E94D4048091E2028F5F8093E2021FBF96
:102810008CB58F7D8CBD8CB58C7F81608CBD8DB56A
:1028200081608DBD8CB58C608CBD61E0809162054E
:102830000E94D40461E0809161050E94D40461E0AB
:10284000809163050E94D4048091650518161CF4DC
:1028500061E00E94D4048091640518161CF461E0C4
:102860000E94D40480916505181674F460E00E94FB
:10287000A4046AE070E080E090E00E94AB0561E0B3
:10288000809165050E94A40480916105082E000CCA
:10289000990BFC01E157F94FE491F0E0EE0FFF1FB7
:1028A000E258FF4F259134913093690520936805D4
:1028B000FC01ED55F94FE491E0936F0580916205BD
:1028C000082E000C990BFC01E157F94FE491F0E060
:1028D000EE0FFF1FE258FF4F2591349130936705AB
:1028E00020936605FC01ED55F94FE491E0936E05E8
:1028F00080916405082E000C990BFC01E157F94FFB
:10290000E491F0E0EE0FFF1FE258FF4F2591349164
:1029100030936B0520936A05FC01ED55F94FE49166
:10292000E093700580916305082E000C990BFC0163
:10293000E157F94FE491F0E0EE0FFF1FE258FF4F2F
:102940002591349130936D0520936C05FC01ED5574
:10295000F94FE491E093710581E20E94740E84E1E5
:102960000E94740E80915F0587FF03C08FE78093FC
:102970005F0580915F0580680E94740E80E20E946E
:10298000740E8CE00E94740E0E94930E81E080937E
:102990002F0584E08093530580E790E090933B05FA
:1029A00080933A0560E080E00E943D1161E070E0B4
:1029B00083E00E9410058091B100887F8160809340
:1029C000B100F8941092800010928100109285005E
:1029D0001092840088E191E09093890080938800B0
:1029E0008091810088608093810080918100816066
:1029F0008093810080916F00826080936F00789453
:102A00000E94691280911C05813019F410923005E2
:102A10000BC080911F058823C9F340E068E870E08F
:102A20008BE295E00E948306E3E2F1E0E491EF5F40
:102A3000E0935805E4E2F1E0E491EF5FE09359059B
:102A400085E291E0909373058093720580917605FD
:102A5000882309F4CAC081E080935C0510925B056D
:102A600010925A0510921E05809374058093750587
:102A700002E211E06CE0F62E0E945E098823E1F389
:102A8000F8018491882319F0E090590501C0E12CE8
:102A900022EB30E040E060E084E595E00E94B7067C
:102AA0004CE04E0D20EC32E060E084E595E00E94C1
:102AB000B70610925D05F0925E0582E291E00E94F9
:102AC000D30E80915805982F990F890F81958D5AB3
:102AD00080935D0580915905982F990F890F8195F5
:102AE000835D80935E058091770584FF03C08EEA45
:102AF00090E002C08AEA90E00E94F40E80915805AE
:102B0000982F990F890F81958D5A80935D0580913B
:102B10005E058F5F80935E0580913005882319F0F4
:102B200086EA90E002C082EA90E00E94F40E809172
:102B30005805982F990F890F81958D5A80935D05BF
:102B400080915E058F5F80935E058EE990E00E9424
:102B5000F40E80911C058130C9F4809130058F5F9F
:102B60006091310587FD09C0082E000C990B70E0BB
:102B70006F5F7F4F0E943C1E682F6093300540E0DE
:102B80006AE474E08BE295E00E94830680911B0565
:102B90008130B9F080917605482F50E060E070E018
:102BA0008090770590907805A0907905B0907A058F
:102BB00084169506A606B70608F4DBC38F3F09F412
:102BC000D8C38FEF8093760560E08BE295E00E949A
:102BD000720610922C0540E066E970E08BE295E009
:102BE0000E94830681E080931E05C0902005D0904E
:102BF0002105C094D094E12CF12C0E9486054B0154
:102C00005C010E948605A5019401209530954095B0
:102C1000509560957095809590950E94201E9B011F
:102C2000AC01C701B6010E94201E4B015C018091DE
:102C30000705909108056C01E12CF12C0E94860596
:102C4000C60ED71EE81EF91EC701B601680D791D14
:102C50008A1D9B1D611571058105910511F00E946A
:102C60003D1CEE24E394F12C43E0C42ED12C53E21E
:102C7000252E312C22E0822E912C0E945E09882381
:102C800009F46FC300910801109109010130110589
:102C900009F0E1C080911C058130E9F48091910533
:102CA00090919205892BB9F065E271E080918D05D4
:102CB00090918E050E94421F892B69F41093F602B1
:102CC0000093F5022DE334E030938B0520938A05C1
:102CD00080E280938C0580911B058130F9F480910E
:102CE000F3029091F4028130910509F04AC3909269
:102CF0000901809208018091F3029091F402892BDE
:102D000069F410920901109208018DE294E0909309
:102D10008B0580938A0580E280938C0586E391E0A1
:102D20000E94390F82E891E00E94390F85E491E01A
:102D30000E94390F81E591E00E94390F8CE591E006
:102D40000E94390F8AE691E00E94390F68E771E02E
:102D500084E595E00E941D048091E0029091E102DB
:102D60000E944C0F01E020E044E260E284E595E03F
:102D70000E94880884E891E00E94390F80911A052A
:102D8000813009F58091F3029091F402019684302C
:102D900091050CF404C31092F4021092F3028AE934
:102DA00091E00E94850F6091910570919205CE018E
:102DB00001960E94BA0DCE0101960E94BB0F898137
:102DC0009A810E94F61A809118058130F9F4809159
:102DD000F3029091F402019797FFE6C2D092F402B9
:102DE000C092F3028DE991E00E94850F60919105F8
:102DF00070919205CE0101960E94BA0DCE01019606
:102E00000E94BB0F89819A810E94F61A8091170552
:102E1000813009F4CEC280911905813009F4DEC2F7
:102E20002091F5023091F6028091F302682F660F2F
:102E3000680F660F665F2130310529F42091F10299
:102E400043E254E004C02091F10249E154E081E002
:102E50000E94F80F86C20230110519F580EA91E050
:102E60000E94390F82E891E00E94390F83EB91E0D4
:102E70000E94390F88EC91E00E94390F83ED91E0B8
:102E80000E94390F82E891E00E94390F83EE91E0B1
:102E90000E94390F80EF91E00E94390F40E069E114
:102EA00031C003301105A9F589EF91E00E94390F77
:102EB0008DE092E00E94390F8CE192E00E94390F80
:102EC00082E891E00E94390F8EE292E00E94390F71
:102ED00082E492E00E94390F87E592E00E94390F68
:102EE00086E692E00E94390F42E064E384E595E0D3
:102EF0000E94F90742E066E384E595E00E94F90745
:102F00004EE16EE484E595E00E94F90780911B058F
:102F100022C28091060190910701019709F08DC1AD
:102F200080911D05813009F46EC2209117058FEF45
:102F3000820F8E3F18F0A12CB12C26C04091EF02D9
:102F40005091F0024F5F5F4F5093F0024093EF02B9
:102F500080910201909103011816190664F74B3015
:102F600051050CF455C202978F3F3FEF930709F0CC
:102F700050C21092030110920201F092F202E0920C
:102F8000F102AA24A394B12C309119058FEF830F7D
:102F90008E3F70F54091EF025091F0024F5F5F4F0E
:102FA0005093F0024093EF0280910201909103014F
:102FB0008C349105ECF44B3051052CF00196909334
:102FC0000301809302018091020190910301019617
:102FD0008D34910514F08CE490E09093030180937C
:102FE00002011092F2021092F102AA24A394B12CD1
:102FF0002F3F09F013C21092F0021092EF0280915D
:103000001B05813069F48091ED029091EE020196EA
:10301000823091050CF406C21092EE021092ED027D
:1030200000E010E080910401909105010817190754
:103030004CF467E772E084E595E00E941D040F5FA1
:103040001F4FF0CF01E020E040E061E484E595E02F
:103050000E94880886E480935D056091EB02709180
:10306000EC0284E595E00E94C6104091770520911E
:10307000F5023091F6028091ED029091EE0240FD52
:1030800022C0AA94AB28F9F42130310571F40097DD
:1030900029F42091F10243E254E025C0019749F55B
:1030A0002091F1024FE054E01EC0009729F42091D6
:1030B000F10245E054E017C00197D9F42091F102E4
:1030C0004BEF53E010C02130310509F3009729F48C
:1030D0002091F10249E154E006C0019751F420919A
:1030E000F10241EF53E060910001809102010E94E2
:1030F000F80F8091E9029091EA02892BE9F40E948D
:10310000DA1BB4010E943C1E9093E8028093E70210
:10311000F092EA02E092E9020E94DA1B6EE470E0AB
:103120000E943C1E9093E6028093E50225E030E089
:103130003093E4022093E3026090E7027090E8028B
:103140004090E3025090E402A090E502B090E602C5
:1031500001E0262D442D6A2D84E595E00E94880823
:1031600082010F5F1F4F1093E4020093E3028091EE
:1031700000019091010102970817190794F18091BD
:103180000201909103019C0121503109A216B3065E
:1031900044F107968A159B0524F18091ED029091E8
:1031A000EE0268167906E9F41092EA021092E9023A
:1031B0008091EB029091EC0201969093EC02809347
:1031C000EB0240E06AE474E08BE295E00E94830643
:1031D0008BEE93E090938B0580938A0580E2809339
:1031E0008C0501331105ECF08091040190910501EB
:1031F000019790930501809304011092EA021092C6
:10320000E90240E065EA72E08BE295E00E94830605
:10321000E2EEF3E0F0938B05E0938A0580E2809381
:103220008C058091040190910501892B09F099C0CA
:10323000109207011092060194C06091EB02709108
:10324000EC028091E0029091E1028617970744F426
:103250007093E1026093E00280E090E00E94491DDB
:1032600020EC32E042EF69EF84E595E00E94B7067A
:103270001CE210935D0586E080935E0589E792E08D
:103280000E94390F10935D0565E872E084E595E0D2
:103290000E941D048091EB029091EC020E944C0F61
:1032A00088E180935E0510925D052091EB023091DC
:1032B000EC028091E0029091E1022817390719F49D
:1032C0008DE892E002C082E891E00E94390F62EA44
:1032D00072E084E595E00E941D048091E0029091E7
:1032E000E1020E944C0F82E891E00E94390F6BEAE4
:1032F00072E084E595E00E941D0490911C05809188
:103300001D05913009F093C01092EC021092EB026F
:10331000D0920501C0920401309203012092020173
:103320002EE130E030930101209300011092EA0277
:103330001092E9021092EE021092ED02F092070153
:10334000E0920601EDEAF2E0F0938B05E0938A0546
:1033500090E290938C05813021F4F0920901E09283
:10336000080180E090E0892B09F487CC0E940000DE
:1033700081CC80911D05813009F07ECB0E94040F25
:103380007BCB8230910529F4D0920901C0920801CB
:10339000B2CC039709F0AFCC0E94040FACCC909351
:1033A000F4028093F302FBCC9093F4028093F30237
:1033B00019CD81EC92E00E94850F6091910570918A
:1033C0009205CE0101960E94BA0DCE0101960E948F
:1033D000BB0F89819A810E94F61A1DCD83E391E08B
:1033E0000E94850F6091910570919205CE01019622
:1033F0000E94BA0DCE0101960E94BB0F89819A816D
:103400000E94F61A0DCD10920501109204018DCD87
:1034100001979093030180930201AFCD3F3F09F0E4
:10342000EECDE9CD9093EE028093ED02F9CD81309F
:1034300009F097CF1092EC021092EB02D0920501A6
:10344000C092040130920301209202012EE130E08B
:1034500030930101209300011092EA021092E902D8
:103460001092EE021092ED02F0920701E092060136
:1034700074CF80918D0590918E050C94F61A109260
:103480005705109256058DE191E090935505809374
:10349000540580E090E00E94411D90E09093E1028D
:1034A0008093E002EDE8F5E011821082138212822F
:1034B0001582148240E150E064EC72E0CF010C947C
:1034C000EB03CF93DF938230910510F482E090E01C
:1034D000E0919505F091960520E030E0C0E0D0E065
:1034E000309711F14081518148175907C0F04817B2
:1034F000590761F482819381209719F09B838A8315
:103500002BC0909396058093950526C02115310513
:1035100019F04217530718F49A01BE01DF01EF01B9
:103520000280F381E02DDCCF2115310509F1281B44
:10353000390B2430310590F412968D919C9113979C
:103540006115710521F0FB019383828304C0909380
:10355000960580939505FD01329644C0FD01E20F6A
:10356000F31F81939193225031092D933C933AC0DC
:103570002091930530919405232B41F420910D0166
:1035800030910E01309394052093930520910B0107
:1035900030910C012115310541F42DB73EB7409112
:1035A0000F0150911001241B350BE0919305F09110
:1035B0009405E217F307A0F42E1B3F0B28173907D9
:1035C00078F0AC014E5F5F4F2417350748F04E0F7F
:1035D0005F1F50939405409393058193919302C08C
:1035E000E0E0F0E0CF01DF91CF9108950F931F93BA
:1035F000CF93DF93009709F48CC0FC0132971382BC
:10360000128200919505109196050115110581F41E
:1036100020813181820F931F209193053091940571
:103620002817390779F5F0939405E093930571C055
:10363000D80140E050E0AE17BF0750F412962D912C
:103640003C911397AD012115310509F1D901F3CF53
:103650009D01DA013383228360817181860F971F78
:103660008217930769F4EC0128813981260F371FEF
:103670002E5F3F4F318320838A819B819383828396
:10368000452B29F4F0939605E093950542C01396D7
:10369000FC93EE931297ED01499159919E01240FED
:1036A000351FE217F30771F480819181840F951F14
:1036B000029611969C938E938281938113969C938C
:1036C0008E931297E0E0F0E0D80112968D919C91D4
:1036D0001397009719F0F8018C01F6CF8D919C910A
:1036E00098012E5F3F4F820F931F209193053091D9
:1036F00094052817390769F4309729F41092960534
:103700001092950502C013821282109394050093C3
:103710009305DF91CF911F910F9108958F929F9202
:10372000AF92BF92CF92DF92EF92FF92CF93DF934F
:10373000EC01688179818A819B8161157105810520
:10374000910521F464E279ED8BE597E02DE133EF0B
:1037500041E050E00E94571D49015A019B01AC0114
:10376000A7EAB1E40E94761D6B017C01ACEEB4EFD8
:10377000A50194010E94841DDC01CB018C0D9D1DCF
:10378000AE1DBF1DB7FF03C00197A109B0488883D4
:103790009983AA83BB839F77DF91CF91FF90EF90AE
:1037A000DF90CF90BF90AF909F908F9008950E9430
:1037B0008E1B089581E191E00E948E1B0895A0E088
:1037C000B0E08093110190931201A0931301B09384
:1037D000140108958F929F92AF92BF92CF92DF9281
:1037E000EF92FF92CF93DF93EC01688179818A8118
:1037F0009B81611571058105910521F464E279EDE4
:103800008BE597E02DE133EF41E050E00E94571D3A
:1038100049015A019B01AC01A7EAB1E40E94761D5F
:103820006B017C01ACEEB4EFA50194010E94841DF4
:10383000DC01CB018C0D9D1DAE1DBF1DB7FF03C06C
:103840000197A109B04888839983AA83BB83BC01EF
:10385000CD019F77DF91CF91FF90EF90DF90CF90D8
:10386000BF90AF909F908F9008950E94EA1B08959B
:1038700085E191E00E94EA1B089560931501709321
:10388000160180931701909318010895E89409C0D8
:1038900097FB3EF490958095709561957F4F8F4F83
:1038A0009F4F9923A9F0F92F96E9BB279395F69599
:1038B000879577956795B795F111F8CFFAF4BB0F17
:1038C00011F460FF1BC06F5F7F4F8F4F9F4F16C07B
:1038D000882311F096E911C0772321F09EE8872F05
:1038E000762F05C0662371F096E8862F70E060E0C1
:1038F0002AF09A95660F771F881FDAF7880F96953A
:10390000879597F908950E94961C0C94071D0E94B4
:10391000F91C38F00E94001D20F0952311F00C9442
:10392000F01C0C94F61C11240C943B1D0E94181DD5
:1039300070F3959FC1F3950F50E0551F629FF00102
:10394000729FBB27F00DB11D639FAA27F00DB11D1B
:10395000AA1F649F6627B00DA11D661F829F2227A4
:10396000B00DA11D621F739FB00DA11D621F839F2B
:10397000A00D611D221F749F3327A00D611D231F01
:10398000849F600D211D822F762F6A2F11249F574F
:1039900050409AF0F1F088234AF0EE0FFF1FBB1F52
:1039A000661F771F881F91505040A9F79E3F510511
:1039B00080F00C94F01C0C943B1D5F3FE4F3983EA8
:1039C000D4F3869577956795B795F795E7959F5FBB
:1039D000C1F7FE2B880F911D9695879597F908954D
:1039E00097F99F6780E870E060E008959FEF80ECB2
:1039F000089500240A941616170618060906089555
:103A000000240A9412161306140605060895092EBA
:103A10000394000C11F4882352F0BB0F40F4BF2B29
:103A200011F460FF04C06F5F7F4F8F4F9F4F089569
:103A300057FD9058440F551F59F05F3F71F047955F
:103A4000880F97FB991F61F09F3F79F08795089544
:103A5000121613061406551FF2CF4695F1DF08C063
:103A6000161617061806991FF1CF86957105610580
:103A700008940895E894BB2766277727CB0197F928
:103A80000895F999FECF92BD81BDF89A992780B526
:103A90000895262FF999FECF1FBA92BD81BD20BD92
:103AA0000FB6F894FA9AF99A0FBE01960895052E6A
:103AB00097FB1EF400940E946E1D57FD07D00E94D4
:103AC000C01D07FC03D04EF40C946E1D509540951C
:103AD000309521953F4F4F4F5F4F089590958095BA
:103AE000709561957F4F8F4F9F4F08950E94E21D03
:103AF000A59F900DB49F900DA49F800D911D112442
:103B00000895B7FF0C94761D0E94761D821B930BBF
:103B100008952F923F924F925F926F927F928F9271
:103B20009F92AF92BF92CF92DF92EF92FF920F934C
:103B30001F93CF93DF93CDB7DEB7CA1BDB0B0FB656
:103B4000F894DEBF0FBECDBF09942A883988488813
:103B50005F846E847D848C849B84AA84B984C884A9
:103B6000DF80EE80FD800C811B81AA81B981CE0FA0
:103B7000D11D0FB6F894DEBF0FBECDBFED01089585
:103B8000A1E21A2EAA1BBB1BFD010DC0AA1FBB1F61
:103B9000EE1FFF1FA217B307E407F50720F0A21BD3
:103BA000B30BE40BF50B661F771F881F991F1A9440
:103BB00069F760957095809590959B01AC01BD016A
:103BC000CF010895A29FB001B39FC001A39F700DC4
:103BD000811D1124911DB29F700D811D1124911D15
:103BE00008950E94201D88F09F5798F0B92F9927BB
:103BF000B751B0F0E1F0660F771F881F991F1AF0D8
:103C0000BA95C9F714C0B13091F00E943A1DB1E0E5
:103C100008950C943A1D672F782F8827B85F39F0E4
:103C2000B93FCCF3869577956795B395D9F73EF470
:103C300090958095709561957F4F8F4F9F4F089518
:103C4000DB018F939F930E94761DBF91AF91A29F3E
:103C5000800D911DA39F900DB29F900D112408958A
:103C6000991B79E004C0991F961708F0961B881FCE
:103C70007A95C9F78095089597FB072E16F400945E
:103C800007D077FD09D00E94501E07FC05D03EF4F6
:103C9000909581959F4F0895709561957F4F0895F8
:103CA000AA1BBB1B51E107C0AA1FBB1FA617B70762
:103CB00010F0A61BB70B881F991F5A95A9F780957E
:103CC0009095BC01CD010895EE0FFF1F0590F49172
:103CD000E02D0994A0E0B0E0E0E7FEE10C948D1D3A
:103CE000EC01009721F4CB010E94611AB8C0FC01DD
:103CF000E60FF71F9C0122503109E217F30708F481
:103D0000ACC0D9010D911C91119706171707B0F09F
:103D10000530110508F49FC0C8010497861797075E
:103D200008F499C002501109061B170B0193119357
:103D30006D937C93CF010E94F61A8DC05B01A01A8F
:103D4000B10A4C01800E911EA0919505B091960587
:103D500040E050E0E12CF12C109709F44AC0A8157E
:103D6000B905D1F56D907C901197630182E0C80E82
:103D7000D11CCA14DB0480F1A3014A195B096A0152
:103D800082E0C80ED11C1296BC9012971396AC918B
:103D9000B5E0CB16D10440F0B282A38351834083B7
:103DA000D9016D937C930AC00E5F1F4FC301800F32
:103DB000911FF90191838083EB2DFA2FE114F10417
:103DC00031F0D7011396FC93EE93129744C0F09311
:103DD0009605E09395053FC08D919C9111974817EA
:103DE000590708F4AC017D0112960D90BC91A02DED
:103DF000B3CF809193059091940588159905E1F4CE
:103E000046175707C8F480910B0190910C01009759
:103E100041F48DB79EB740910F0150911001841B62
:103E2000950BE817F907C8F4F0939405E093930510
:103E3000F901718360830FC0CB010E94611A7C017C
:103E4000009759F0A801BE010E94391FCE010E94BF
:103E5000F61AC70104C0CE0102C080E090E0CDB7E1
:103E6000DEB7EEE00C94A91D81E090E0F8940C948C
:103E7000521FFB01DC0102C001900D9241505040E5
:103E8000D8F70895FB01DC018D9101908019011094
:103E9000D9F3990B0895FB01DC0101900D920020EC
:103EA000E1F7089513E0C7E6D3E004C0FE010E94E5
:0E3EB000641E2196C836D107C9F7F894FFCFDB
:103EBE001E00230003000100010001000097058091
:103ECE00000100000001000000000000002A09931C
:103EDE0003BF03BE0375707570646E646E6C66729C
:103EEE00746C667274005779626965727A206F70AD
:103EFE00636A653A002020204E4F574120475241B9
:103F0E00002020204155544F525A5900202020495C
:103F1E004E535452554B434A45002020204B4F4E92
:103F2E0049454320475259002020202020202020A0
:103F3E00203A2000202020202020202020415248FE
:103F4E006E2E4555203230313800646E007570008B
:103F5E004772756E696F7A65726361204742756943
:103F6E006E6F004B6F642C6766783A204461726BFB
:103F7E0020417263686F6E004C6F676F3A204E651A
:103F8E006B6F004B6F6E636570743A2044697A7A7A
:103F9E007939005757573A204152484E2E45550011
:103FAE0015202D204D454E55004772756E696F20B8
:103FBE006A65737420676C6F646E7921004A65645C
:103FCE007A206D6172636865776B690069207A6229
:103FDE00696572616A2070756E6B74792E0050720D
:103FEE007A796369736B2015206B6F6C6F72756ACB
:103FFE0065004772756E69612C20627920646F705E
:10400E0061736F77616300676F20646F20776172F1
:10401E007A7977612E00536D61637A6E65676F21D1
:10402E00204D6C656D210003004B4F4E49454320DA
:10403E00475259210057796E696B3A2000214E4F35
:10404E005759204752554E494F2052454B4F5244D7
:10405E00210052656B6F72643A200016202D20529B
:10406E00455354415254202017202D204D454E5576
:10407E00006C6600313233343536373839303132F0
:10408E0033343536000D0A004C4F41444552000082
:00000001FF
