:100000000C9467030C948F030C948F030C948F0350
:100010000C948F030C948F030C948F030C948F0318
:100020000C948F030C948F030C948F030C942E0666
:100030000C948F030C948F030C948F030C948F03F8
:100040000C94E4050C948F030C948F030C948F0391
:100050000C948F030C948F030C948F030C948F03D8
:100060000C948F030C948F030101FF030101F7032C
:100070006C00680000000000240027002A00000037
:100080000000250028002B000500893008023802F6
:100090004978681400000500380168010000175312
:1000A00044001613780016131400151020001520B4
:1000B0001000540A03E181867F3E186D830F0F0EF6
:1000C0000183866033186DC3198F1803C38E6033A4
:1000D000186DE330CF1803C39E603630CDE360CF98
:1000E0003006C79E7E3E30CDB360CF300CC6F66082
:1000F0003330D9B660CF33CFCCF66061B0DB1E6051
:10010000CF30D86CE6C061B0DB1E618F19986CC629
:10011000C063B19B0E330F0FB078C6FF7E1F1B0666
:100120001E0F0003050D160D1D1F1D0A100A0E1CC3
:100130000E0C1E0C141A14161F161E131E1E1B1E48
:100140001E1F1E3F213F3A2F3A173D173F213F18F0
:100150001F02040A041F0E04040E1F0A1F0A0E0EBB
:100160001F04110E2E252E2F2A2E262929021F02AA
:10017000081F08150E04040E150E15151B151B047B
:100180000604040C040000000017000300031F0A0B
:100190001F16371A1904130A153A000300000E112E
:1001A000110E000A040A040E0400300004040400C6
:1001B00010001804031F111F121F101D1517111511
:1001C0001F07041F17151D1F151D01011F1F151FD8
:1001D00017151F000A00003200040A110A0A0A114A
:1001E0000A040115020E11171E051E1F150A0E1115
:1001F0000A1F110E1F15111F05010E111D1F041FCF
:10020000111F1108100F1F041B1F10101F061F1EA7
:10021000040F0E110E1F09060E112E1F051A1215BE
:1002200009011F011F101F0F180F1F0C1F1B041B9C
:10023000031C03191513001F11030418111F0002DA
:1002400001022020200001020C121E1F120C0C12B1
:10025000120C121F0C1A14041E05242A1E1F021C45
:10026000141D1020201D1F0814111F101E041E1E17
:10027000021C0C120C3E0A040C123E1E0402141640
:100280000A020F120E101E0E100E1E081E120C1265
:1002900026281E322A26041E21001F00211E0401CA
:1002A00002013F213F0500680138010000506C61E8
:1002B0007920697420616761696E2C2047756E6FC3
:1002C00021004024000000000000000000000000A9
:1002D000070000001F7DBFFFFDFFDF3831C7E916B3
:1002E000374431EC209249B410452484609249A4EB
:1002F00094D5249247C648A495DC6792444C4AA4FE
:100300009DC4C482674C0A24995CC48220460A2496
:100310009354649220531B241045309230D9B12657
:10032000304593921FFFFFFFFFFFFEFE000000001D
:1003300000000000000000000000000000000001BC
:10034000FF0000000000000F008000000000001807
:10035000004000000000007000A00000000001C08C
:10036000F0B00000000003000D18000000000E00B7
:100370000408000000001800010800000000300020
:100380000108000000006700018C00000000CF8021
:1003900001CE0000000189800363000000011B8082
:1003A0000731000000031F800EA9800000060F80A7
:1003B0003AA08000000C070001E0C00000380000F7
:1003C0000000400000E00000000040000086000047
:1003D00000004000018F0000000040000119800073
:1003E000000040004E6F6F6F6F6F6F21004D6C65A6
:1003F0006D210008087EFFFBFFFF7E446608087E33
:10040000FFFBFFFF7E223308087E818581817E22EB
:100410003308083C6EDBFF8181FF7E08087E818502
:1004200081817E446608083C52A581FFFF817E479A
:100430006F2C204772756E696F21004255524745F7
:1004400052204D6F64652100450068010000F6E808
:10045000DBCFC3B8AEA49B928A827B746E68625C69
:1004600057524E4945413E3A3734312E2C292725E3
:1004700023210A0A153A49676E6F7265006D560AA4
:100480000A504C45415345205455524E204F464644
:1004900020004C4F572042415454455259212000CE
:1004A00003053F213F1208120A100A0E1C0E0C1EF3
:1004B0000C141A14161F161E131E1E1B1E1E1F1EA2
:1004C0003F213F3A2F3A173D173F213F181F0204A3
:1004D0000A041F0E04040E1F0A1F0A0E0E1F041129
:1004E0000E2E252E2F2A2E262929021F02081F082C
:1004F000150E04040E150E15151B151B0406040419
:100500000C040000000017000300031F0A1F163729
:100510001A1904130A153A000300000E11110E00F7
:100520000A040A040E040030000404040010001839
:1005300004031F111F121F101D151711151F07048B
:100540001F17151D1F151D01011F1F151F17151F33
:10055000000A00003200040A110A0A0A110A040102
:1005600015020E11171E051E1F150A0E110A1F1166
:100570000E1F15111F05010E111D1F041F111F1144
:1005800008100F1F041B1F10101F061F1E040F0E44
:10059000110E1F09060E112E1F051A121509011F33
:1005A000011F101F0F180F1F0C1F1B041B031C0320
:1005B000191513001F11030418111F000201022056
:1005C00020200001020C121E1F120C0C12120C1221
:1005D0001F0C1A14041E05242A1E1F021C141D10B1
:1005E00020201D1F0814111F101E041E1E021C0CAB
:1005F000120C3E0A040C123E1E040214160A020FCC
:10060000120E101E0E100E1E081E120C1226281E90
:10061000322A26041E21001F00211E040102013F70
:10062000213F172B152010204C4F414445520017F5
:100630002B16201314000A4E6F205344206361725E
:1006400064206F720A6E6F204C4F414445522E4811
:1006500045580A0A153A45786974001D20466C61B0
:100660007368696E670A20206C6F616465722E2E54
:100670002E0A0A444F4E2754205455524E204F46BE
:100680004621000000000023002600290004040485
:10069000040404040402020202020203030303032B
:1006A0000301020408102040800102040810200108
:1006B00002040810200000000800020100000304EA
:1006C00007000000000000000000301A2A1A112460
:1006D0001FBECFEFD8E0DEBFCDBF12E0A0E0B1E09B
:1006E000E0EAFEE302C005900D92A43CB107D9F701
:1006F00025E0A4ECB2E001C01D92AB37B207E1F7F0
:1007000013E0C6E6D3E004C02197FE010E94551E07
:10071000C536D107C9F70E94A5120C94431F0C944B
:1007200000000895CF92DF92EF92FF920F931F93F4
:10073000CF93DF936C017A018B01C0E0D0E0CE153E
:10074000DF0589F0D8016D918D01D601ED91FC9105
:100750000190F081E02DC6010995892B11F47E01ED
:1007600002C02196ECCFC701DF91CF911F910F916D
:10077000FF90EF90DF90CF900895089580E090E093
:1007800008950E94251F0F931F93CF93DF93EC01D1
:1007900088819981009729F02A813B8126173707A4
:1007A00088F48B016F5F7F4F0E945B1E009761F0A2
:1007B000998388831B830A832C813D81232B11F429
:1007C000FC01108281E001C080E0DF91CF911F9198
:1007D0000F910895EF92FF920F931F93CF93DF93A2
:1007E000EC017B018A01BA010E94C303288139818F
:1007F00081110DC02115310519F0C9010E94E71AB8
:10080000198218821D821C821B821A8206C01D83D7
:100810000C83B701C9010E943C1FCE01DF91CF912B
:100820001F910F91FF90EF900895DC01ED91FC91E5
:100830000190F081E02D09946115710579F0FB01BB
:1008400001900020E9F73197AF01461B570BDC01FF
:10085000ED91FC910280F381E02D099480E090E01D
:1008600008954F925F926F927F92EF92FF920F9353
:100870001F93CF93DF93CDB7DEB7A1970FB6F89450
:10088000DEBF0FBECDBF7C01FA01CB0119A2223021
:1008900008F42AE08E010F5D1F4F422E512C612C6F
:1008A000712CBF01A30192010E94B11DF901CA017F
:1008B000015011096A3014F4605D01C0695CD8010F
:1008C0006C93232B242B252B61F7B801C7010E94C1
:1008D0001C04A1960FB6F894DEBF0FBECDBFDF910A
:1008E000CF911F910F91FF90EF907F906F905F904D
:1008F0004F900895833081F028F4813099F0823050
:10090000A1F008958730A9F08830B9F08430D1F48F
:10091000809180008F7D03C0809180008F778093CD
:100920008000089584B58F7702C084B58F7D84BD23
:1009300008958091B0008F7703C08091B0008F7DC3
:100940008093B00008951F93CF93DF93282F30E05A
:10095000F901EB54F94F8491F901EF55F94FD49116
:10096000F901E357F94FC491CC23C9F0162F811137
:100970000E947A04EC2FF0E0EE0FFF1FE258FF4FC9
:10098000A591B4918FB7F894111105C09C91ED2FEA
:10099000E095E92302C0EC91ED2BEC938FBFDF9142
:1009A000CF911F910895CF93DF9390E0FC01EF5515
:1009B000F94F2491FC01E357F94F8491882361F1A9
:1009C00090E0880F991FFC01EC58FF4FC591D4911E
:1009D000FC01E258FF4FA591B491611109C09FB786
:1009E000F8948881209582238883EC912E230BC074
:1009F000623061F49FB7F8943881822F8095832309
:100A00008883EC912E2B2C939FBF06C08FB7F89450
:100A1000E8812E2B28838FBFDF91CF9108951F93FC
:100A2000CF93DF93182FEB0161E00E94D30420974E
:100A300011F460E004C0CF3FD10539F461E0812FAB
:100A4000DF91CF911F910C94A304E12FF0E0EB54C0
:100A5000F94FE491E330F9F048F4E130B9F0E230D5
:100A6000A1F584B5806284BDC8BD34C0E730E9F02B
:100A7000E83019F1E43049F580918000806280937C
:100A80008000D0938B00C0938A0024C084B5806816
:100A900084BDC7BD1FC080918000806880938000A6
:100AA000D0938900C093880015C08091B000806801
:100AB0008093B000C093B3000DC08091B0008062FD
:100AC0008093B000C093B40005C0C038D1050CF0CD
:100AD000B5CFAFCFDF91CF911F9108958E3008F041
:100AE0008E508770806480937C0080917A0080644F
:100AF00080937A0080917A0086FDFCCF8091780007
:100B00002091790090E0922B08953FB7F89480915E
:100B1000DD029091DE02A091DF02B091E00226B5E5
:100B2000A89B05C02F3F19F00196A11DB11D3FBF25
:100B3000BA2FA92F982F8827820F911DA11DB11DB3
:100B4000BC01CD0142E0660F771F881F991F4A95AF
:100B5000D1F708958F929F92AF92BF92CF92DF927A
:100B6000EF92FF926B017C010E9485054B015C01B5
:100B7000C114D104E104F104F1F00E948505DC0107
:100B8000CB0188199909AA09BB09883E9340A105A0
:100B9000B10570F321E0C21AD108E108F10888EE2E
:100BA000880E83E0981EA11CB11CC114D104E1047D
:100BB000F10419F7DDCFFF90EF90DF90CF90BF9059
:100BC000AF909F908F9008951F920F920FB60F9243
:100BD00011242F933F938F939F93AF93BF93809153
:100BE000E6029091E702A091E802B091E90230910B
:100BF000DC0223E0230F2D3720F40196A11DB11D47
:100C000005C026E8230F0296A11DB11D2093DC022A
:100C10008093E6029093E702A093E802B093E90282
:100C20008091DD029091DE02A091DF02B091E0029E
:100C30000196A11DB11D8093DD029093DE02A09369
:100C4000DF02B093E002BF91AF919F918F913F91EE
:100C50002F910F900FBE0F901F9018951F920F921B
:100C60000FB60F9211242F936F937F938F939F93BF
:100C70006091E302662359F18091DB028F5F8093DC
:100C8000DB029091E402891710F12091E10281E0EA
:100C900028272093E1021092DB028091E50288234D
:100CA00069F080910A0193E4899F802D1124895B6A
:100CB00080930A010E94211E9093E202222329F0D0
:100CC0008091E2028093B40002C080E0FBCF9F914C
:100CD0008F917F916F912F910F900FBE0F901F906A
:100CE0001895FC0161110DC0178A158A14A213A270
:100CF000108E1092E2021092E3021092E102109222
:100D0000B4000895EF92FF920F931F93CF93DF9358
:100D10001F92CDB7DEB77C018B01411105C060E0A9
:100D200049830E947106498150E0FA01EE0FFF1FCE
:100D3000EE0DFF1D16870587DA011996AA0FBB1F56
:100D4000AE0DBF1D1D921C92F701E40FF51F81E04F
:100D5000818389E0868B118E138E158E0F90DF9123
:100D6000CF911F910F91FF90EF9008954F925F9256
:100D70006F927F928F929F92AF92BF92CF92DF92AB
:100D8000EF92FF920F931F93CF93DF93F901C490DB
:100D900031965491EC0108A164350CF018C10C2C6B
:100DA000000CDD08A62F062E000CBB0B7D01EC0C01
:100DB000FD1C1E141F040CF00AC140330CF007C1C7
:100DC000A52E842E042E000C9908F401E50FF11DC8
:100DD00057FDFA951E161F060CF0F9C02E5F3F4F07
:100DE000E6012796D7FD279673E0D595C7957A95A6
:100DF000E1F747FF0AC0A52EA40EC89DA001C99D1A
:100E0000500D1124241B350B40E0EA2D0A2C000C58
:100E1000FF0BE40FF11D47FDFA95F1971CF050E32D
:100E2000A52EA41A67FD60E0F701E535F10514F081
:100E3000E4E5F0E07E2FFC01D484D426862F062E34
:100E4000000C990BFC01EA1BFB0BDF017F01F7E0B3
:100E5000EF22FF24E0E8F0E002C0F595E795EA9480
:100E6000E2F71E2FB7FD179653E0B595A7955A9553
:100E7000E1F72A0F3B1FE42FE77051E001C0550F47
:100E8000EA95EAF7459545954595B4E54B02800D01
:100E9000911D112486519D4FC12C0A2C000CBB08BA
:100EA000992493942E015524EC2DF0E0EA15FB05CE
:100EB0000CF08DC0F90144910130E1F47C01A12FC7
:100EC000862E881AB82DBE0DB71708F077C0B42F3C
:100ED000BA2321F0E701B881B52BB883B0E0B5950E
:100EE000A795109719F431964491A0E8DFEFED1A19
:100EF000FD0AE8CF01111FC0752E70947C01A12F4F
:100F0000F901862E881AB82DBE0DB71708F056C005
:100F1000B42FBA2321F0E701B881B721B883B0E03C
:100F2000B595A795109719F431964491A0E8DFEF95
:100F3000ED1AFD0AE8CF033031F07C01A12FF90151
:100F4000862E881A37C0752E7094862E7C01A12FAC
:100F5000F9018716D8F4B42FBA2359F0E701B88104
:100F6000682C6D2460FE02C0B52B02C0B721E701DA
:100F7000B883B0E0B595A795109719F431964491D0
:100F8000A0E88394DFEFED1AFD0AE3CFD92416C061
:100F9000B42FBA2321F0E701B881B527B883B0E0B8
:100FA000B595A795109719F431964491A0E8DFEF15
:100FB000ED1AFD0AB82DBE0DB71750F3550F19F4F1
:100FC0008C5A9F4F51E0C394240D351D6DCFDF9196
:100FD000CF911F910F91FF90EF90DF90CF90BF9036
:100FE000AF909F908F907F906F905F904F900895FB
:100FF000FC01643508F053C0403308F050C090A1A4
:10100000742F759575957595262F062E000C330B4C
:10101000542F57709230A1F4F901E651FD4F84E549
:101020007802E00DF11D1124808190E0052E02C0B0
:10103000959587950A94E2F78095982F91700AC04C
:10104000933041F484858170462740954170841324
:1010500003C014C0911112C084E57802200D311D27
:101060001124F901E651FD4F81E090E001C0880FA5
:101070005A95EAF780959081892310C084E578021B
:10108000200D311D1124F901E651FD4F81E090E062
:1010900001C0880F5A95EAF79081892B80830895C3
:1010A000BF92CF92DF92EF92FF920F931F93CF9355
:1010B000DF931F92CDB7DEB77C01D62EC42E002E53
:1010C000000C110B040F111D47FD1A954C2D0C2C13
:1010D000000C550B401751077CF4B12CB21654F498
:1010E0006B2D6D0D4C2DC70129830E94F807B39419
:1010F0002981F4CFC394EACF0F90DF91CF911F9154
:101100000F91FF90EF90DF90CF90BF9008956F9276
:101110007F928F929F92AF92BF92CF92DF92EF9287
:10112000FF920F931F93CF93DF93EC0188A0643558
:101130000CF080C040330CF07DC0EC81F0E03197C2
:101140000E9FC0010F9F900D1124860F911D67FD0A
:101150009A95181619060CF06DC0ED81E09FF0010C
:101160001124E40FF11D47FDFA951E161F060CF021
:1011700061C0102FE42EF62E962EB62EC22ED12C44
:10118000EB2DEF190E2E000CFF0B8C8190E0E81771
:10119000F9070CF04EC00197E817F90779F0C89EDF
:1011A0009001C99E300DD89E300D1124E20FF31F1F
:1011B0008E8D9F8DE80FF91F749001C0712C6E2CDD
:1011C000AE2C2A2D2E19022E000C330B8D8190E0AF
:1011D000281739075CF570FE10C0113031F44A2D24
:1011E0006B2DCE010E94F8071DC0012F212F462D27
:1011F000692DCE010E94500815C089A198A18917B8
:1012000089F088A3113031F44A2D6B2DCE010E9454
:10121000F80707C0012F212F462D692DCE010E940E
:10122000500888A27694A394610ECBCFB394910E0C
:10123000A7CF88A2DF91CF911F910F91FF90EF90E0
:10124000DF90CF90BF90AF909F908F907F906F90E6
:1012500008950F93CF93DF93EC016A3019F42D8139
:1012600098851FC06D3019F1262F08854A8569853C
:101270000E94870828853C818985329F800D112432
:1012800089879F81992399F0082E000C990B44E5DA
:1012900050E0239F401951091124481759073CF485
:1012A0009D818A85299F800D11248A87198681E076
:1012B00090E0DF91CF910F9108954F925F926F92DE
:1012C0007F928F929F92AF92BF92CF92DF92EF92D6
:1012D000FF920F931F93CF93DF9300D000D01F9204
:1012E000CDB7DEB740916A0550916B0560916C05F2
:1012F00070916D052FB7F8948091E6029091E70206
:10130000A091E802B091E9022FBF481B590B6A0B6C
:101310007B0B8091690590E0A0E0B0E0009165054D
:10132000109166052091670530916805841795072F
:10133000A607B70730F4011511052105310509F09D
:1013400036C3012B022B032B09F02FC3809101051B
:1013500081508E3F30F580910005813039F58091C4
:1013600014058F5F6091150587FD09C0082E000CDC
:10137000990B70E06F5F7F4F0E942D1E682F609366
:1013800014058FE296E090936F0580936E0588E4D4
:101390008093700540E068E474E08FE095E00E947F
:1013A00082068091010581508E3F70F48091FF0488
:1013B000813009F0A8C382E296E090936F05809394
:1013C0006E0588E48093700580E00E94FB10809198
:1013D0001005882309F4ADC0809124058111A9C0AE
:1013E00080911C0590911D05E0912105F091220549
:1013F000EE0FFF1FE80FF91F45915491411551055C
:1014000001F520912005222331F01092220510923F
:101410002105FC0114C01092100580910F0588234E
:1014200041F080E00E94FB10E0912105F09122053F
:101430002FC060E08FE095E00E9471067AC0459170
:1014400054919A01369527953695279540FF51C0BE
:10145000CA0116E0969587951A95E1F78F71952F39
:1014600096959695969590512F70223071F1F8F4DB
:10147000211117C08B3008F08AE080932505E09198
:101480002105F09122053196F0932205E093210584
:10149000EE0FFF1F80911C0590911D05E80FF91FAD
:1014A000CECF213061F760E00E943C11E8CF2330BD
:1014B000B1F0243021F720911305829F802D112453
:1014C00080932C0590932D05DACF20911305829FF0
:1014D000802D11248093280590932905D0CF209149
:1014E0001305829F802D112480932A0590932B054C
:1014F000C6CF2F732093230580911305859F802DE0
:101500001124809324051092340510923305109213
:10151000320581E0809326058093E1021092270531
:101520008091210590912205019690932205809348
:10153000210580912605882309F4F3C080912405B4
:10154000811106C060E08FE095E00E947106E9C05D
:1015500081508093240580913405811148C02091E9
:101560003205309133052F5F3F4FC901880F991F16
:10157000E0912E05F0912F05E80FF91F6591749108
:10158000862F877080933505AB01E3E0569547952C
:10159000EA95E1F7CA0196958795972F96959695C6
:1015A000909336058F7390911305899F802D112498
:1015B0008093340541704093E502309333052093C6
:1015C00032058091300590E02817390780F020918E
:1015D0003105222339F0821B9109909333058093C2
:1015E000320505C060E08FE095E00E9471068091B1
:1015F00034058150809334058091270521E0280F20
:10160000209327054091230530913605340F8091B2
:101610001B05380F3093110560912A05662371F080
:1016200070E0822F022E000C990B0E942D1E8091DB
:101630002B05869F300D11243093110580911105E3
:1016400090E0849664E270E00E942D1E8093110564
:10165000309125053093120560912805662381F0AD
:10166000062E000C770B822F022E000C990B0E9485
:101670002D1E80912905869F300D1124309312056F
:1016800060912C056623A1F0822F220F990B70E048
:101690000E942D1ECB0162E070E00E942D1E209161
:1016A0002D0590911205289F900D112490931205FD
:1016B000809112054F3341F08A300CF089E087FDAC
:1016C00080E08093120502C010921205F894E09118
:1016D0001105F0E0E25BFB4FE491E093E40230910E
:1016E00012052091370532039001112440913505F0
:1016F0004203C001439F900D11240090140502C0C5
:10170000880F991F0A94E2F797FF02C081589F4FF4
:10171000880F892F881F990B8093E3028093E20240
:10172000789480917005882309F48DC08C3020F462
:101730009CE0E92EE81A01C0E12CFF24F394F0921A
:101740004005109258051092590530913D054DE223
:10175000D42E1D2D131B1E0D03E0030F2EE4412F6D
:1017600063E088E395E03D830E9450083D810CEFE3
:10177000030F1D5F202F41E0612F80E50E940D12B5
:10178000202F42E0612F83E00E940D12F092580555
:10179000F092590500913D0513E0100FD01ADE0CB0
:1017A00023E04D2D622F88E395E02D830E94F807FA
:1017B0002D812F5F2135A9F71D0DFF24FA94F10E1D
:1017C00023E04F2D622F88E395E02D830E94F807D8
:1017D0002D812F5F2135A9F7035033E0D30E402F21
:1017E0006D2D80E00E94F511402F6D2D83E50E9444
:1017F000F51141E06D2D83E00E94771142E06D2DDF
:1018000080E50E947711145044E0612F80E50E942A
:10181000771148E0612F83E00E94771184E0809384
:10182000410580913D05E81A8E2D815D809342052A
:1018300080916E0590916F050E94D20E8091700587
:101840008150809370058091060590910705892B42
:1018500009F483C011E01093580510925905909136
:101860003C0585E5891B80934105109242056091F6
:101870000305613009F452C030F0809102056530F3
:1018800008F064C05FC060E08FE095E00E947106E0
:101890001092100510934005E0EAF4E0E491EF5F48
:1018A000E0933C05E1EAF4E0E491EF5FE0933D056D
:1018B00082EA94E0909357058093560510920705AD
:1018C0001092060510923E0518EA0E945D098823D1
:1018D000E1F382E994E00E94D20E40910405509118
:1018E000050560E070E02AE088E395E00E9431049D
:1018F0008DE794E00E94D20E612F62956F7070E0C8
:1019000088E395E00E94C51082E794E00E94D20E21
:101910008091FF04813009F0FCC01FC080915B05FD
:1019200090915C05A0915D05B0915E058F7099273F
:10193000AA27BB270897A105B10510F467E009C0E5
:1019400068E707C0882349F06B5F03C0882329F04C
:101950006FE288E395E00E9415040E94920E809148
:101960003E0581110EC088EF91E0EAEEF2E0DF0162
:101970009C011D9221503040E1F7109241051092D8
:1019800042050E9485056093650570936605809306
:101990006705909368052091610530916205621B8F
:1019A000730B7093600560935F0580E0CCC02FB728
:1019B000F8948091E6029091E702A091E802B0913C
:1019C000E9022FBF20916905820F911DA11DB11D54
:1019D00080936A0590936B05A0936C05B0936D0599
:1019E00080915B0590915C05A0915D05B0915E05CD
:1019F0000196A11DB11D80935B0590935C05A0939A
:101A00005D05B0935E051092650510926605109213
:101A10006705109268050E948505609361057093C3
:101A2000620580936305909364058091EB04909127
:101A3000EC042FE0289F8001299F100D112485E1DF
:101A40000E946E05800F911F24E0969587952A9538
:101A5000E1F79093EC048093EB042091EA042223B5
:101A600009F44BC06091EE04262F30E040E050E0D6
:101A700029833A834B835C83C090EF04D12CE12C03
:101A8000F12C4091F2045091F3044A01A12CB12CA5
:101A90002091F0043091F1042901612C712C8217FE
:101AA000930728F09C014817590708F49A01C901C7
:101AB000A0E0B0E09C01AD012419350946095709A1
:101AC00069817A818B819C816C197D098E099F09BE
:101AD0000E94111EA50194012419350946095709D0
:101AE0000E94481DC20ED31EE41EF51EC092ED04D6
:101AF0006C2D70E085E00E940F050E941F0E0E9471
:101B0000681281E020C0893209F05ECC0E94030F88
:101B10005BCC115009F0D9CE60E070E085E00E9406
:101B20000F0583B7817F846083BF83B7816083BFE4
:101B300083B7816083BF889583B78E7F83BF83B768
:101B40008E7F83BFC2CE0F900F900F900F900F909B
:101B5000DF91CF911F910F91FF90EF90DF90CF9089
:101B6000BF90AF909F908F907F906F905F904F90BD
:101B70000895DF92EF92FF920F931F93CF93DF931D
:101B80007C01EB016230710520F48B01C2E0D0E0F2
:101B900002C002E010E0F70111821082138212826B
:101BA0001582148240E050E063E672E0C7010E94B3
:101BB000EA03809175059091760508171907B0F52D
:101BC0008C179D0708F4EC01E0917105F091720506
:101BD000EC0FFD1FD080108260917105709172052D
:101BE000600F711F6115710561F0FB01019000200C
:101BF000E9F73197AF01461B570BC7010E94EA0373
:101C00000EC0F70180819181009711F00E94E71AC0
:101C1000F701118210821582148213821282809140
:101C2000710590917205C80FD91FD882C701DF9145
:101C3000CF911F910F91FF90EF90DF900895CF9279
:101C4000DF92EF92FF920F931F93CF93DF93C4EF36
:101C5000D4E00BEF14E0FF24FA9497E0E92EE00EB5
:101C600062E088810E94D304288130E0F901EB54BE
:101C7000F94F8491F901EF55F94FC490F901E357F9
:101C8000F94FD490DD2071F081110E947A04ED2D7E
:101C9000F0E0EE0FFF1FED57F94FA591B491EC91D5
:101CA000EC21B1F4F80180818F5F808360E088814E
:101CB0000E94D30421960F5F1F4FE012D1CFDF9116
:101CC000CF911F910F91FF90EF90DF90CF900895EB
:101CD000F8018081882371F3F8018F3F11F410829D
:101CE000E5CFF082E3CFCF93C82FF89460E08091E6
:101CF00047050E94A3048091480518161CF460E073
:101D00000E94A304CEBD00000DB407FEFDCF8EB52A
:101D10008091480518161CF461E00E94A304789491
:101D2000CF9108950F931F93CF93809144058F5FB8
:101D3000809344050AEE12E0C0E08C2F80640E947C
:101D4000730E80E80E94730E61E0809147050E9447
:101D5000A3048091480518161CF460E00E94A304B7
:101D600080E090E0F801E80FF91F20812EBD00000F
:101D70000DB407FEFDCF2EB501968435910591F780
:101D80008091480518161CF461E00E94A304CF5FFF
:101D90000C5A1F4FC63089F680E4CF911F910F91E6
:101DA0000C94730E0F931F93CF93DF938C01C0E0BD
:101DB000D0E0F801EC0FFD1F6491662371F0E09113
:101DC0003805F09139050190F081E02D88E395E028
:101DD0000995892B11F02196ECCFCE01DF91CF919F
:101DE0001F910F910895CF93DF930E94D20EEC01C3
:101DF00069EB72E088E395E00E941C048C0F9D1F44
:101E0000DF91CF91089588EF91E0EAEEF2E0DF01F3
:101E10009C011D9221503040E1F710924105109233
:101E200042058BE596E00E94D20E0E94920E8CB580
:101E300083608CBD8DB58E7F8DBD8CEB92E0EEEF17
:101E4000FFE3099510923E0586E396E00E94F30EAB
:101E50000E94920E0E941F0E8091FF04813039F083
:101E600062E370E080E090E00E94AA05F3CF08955D
:101E7000CF93DF93BC0188E395E00E941C04EC0142
:101E800069EB72E088E395E00E941C048C0F9D1FB3
:101E9000DF91CF910895CF92DF92EF92FF92CF938F
:101EA000DF936C01990FEE08FF08F7FE16C06DE294
:101EB00088E395E00E941504EC0144275527BA01F8
:101EC0004C195D096E097F092AE088E395E00E94BC
:101ED00031047C01EC0EFD1E08C02AE0B701A6010A
:101EE00088E395E00E9431047C0169EB72E088E3AD
:101EF00095E00E941C048E0D9F1DDF91CF91FF90F5
:101F0000EF90DF90CF9008950F931F93CF93DF93BF
:101F1000009711F480E029C0FC0101900020E9F74E
:101F20003197E81BF90B00917505109176053097F4
:101F3000D9F0EC010E0F1F1FB80181E795E00E9458
:101F4000C303882339F32091710530917205809184
:101F5000750590917605BE01820F931F0E943C1F6C
:101F6000109376050093750581E0DF91CF911F9165
:101F70000F910895CF93DF93EC01809171059091BB
:101F800072050097C9F0688179816115710591F03A
:101F900040917305509174052C813D814217530780
:101FA00048F00E943C1F8C819D8190937605809320
:101FB000750518C00E94E71A88819981909372056F
:101FC000809371058A819B8190937405809373053A
:101FD0008C819D8190937605809375051982188276
:101FE0001B821A821D821C82DF91CF9108952F924D
:101FF0003F924F925F926F927F928F929F92AF9299
:10200000BF92CF92DF92EF92FF920F931F93CF93E5
:10201000DF9300D000D000D0CDB7DEB7282E762FCA
:102020007A0121111FC09A01462F682F88E395E09D
:1020300026960FB6F894DEBF0FBECDBFDF91CF91CD
:102040001F910F91FF90EF90DF90CF90BF90AF90D6
:102050009F908F907F906F905F904F903F902F90C8
:102060000C94B606FA01949131963491492E512C74
:102070006201F7E0CF0ED11C83E0D594C7948A9516
:10208000E1F71D8240E8A42EB12C832E912C9150B3
:102090009E83ED818E2FEE0F990B841595050CF024
:1020A0005BC00D8107FD095F0595059505958D813F
:1020B000877887FF03C08150886F8F5F350102C02A
:1020C000759467948A95E2F7312C002E000C110B61
:1020D0000E5F1F4F4E818D81481B4983832D032C3A
:1020E000000C990B881599059CF58C9DF0018D9D30
:1020F000F00D9C9DF00D1124E00FF11FEE0DFF1D62
:10210000E491F0E0E621F721EF2B01F1222361F0C9
:10211000522F537020FF02C0698101C06D8121FFE1
:1021200007C0432F431905C0432D6D8150E001C006
:10213000432D620D470F88E395E03A835B837C83F0
:102140000E94F8075B81252F7C813A813394C6CFAA
:102150009D819F5F9D839DCF26960FB6F894DEBF2D
:102160000FBECDBFDF91CF911F910F91FF90EF90E8
:10217000DF90CF90BF90AF909F908F907F906F90A7
:102180005F904F903F902F900895CF92DF92EF9203
:10219000FF920F931F93CF93DF936B01770FEE089E
:1021A000FF08F7FE1BC0EC016DE20E9415048C01D4
:1021B00044275527BA014C195D096E097F092AE0A9
:1021C000CE010E943104800F911FDF91CF911F91AA
:1021D0000F91FF90EF90DF90CF9008952AE0B70124
:1021E000A601DF91CF911F910F91FF90EF90DF90AB
:1021F000CF900C943104CF93DF93482F50E0EA0145
:10220000C651DB4F9DA19923A1F19EA1911131C02F
:102210009EA5FA01EE0FFF1FEF50FB4F35A126A13F
:10222000E32FF22FE90FF11DE90FF11D25913491F4
:102230002F3F9FEF390711F41DA21BC039AB440F8C
:10224000551FFA01EC50FB4F3327220F331F05A017
:10225000F6A1E02DE20FF31F65917491811105C085
:1022600040E08FE095E00E94820629968DA18F5F65
:102270008DA3DF91CF91089570E0DB01AA0FBB1F02
:10228000A651BB4FD4962C91D497D5969C91D597B7
:10229000E22FF92FE80FF11DE80FF11D2591349180
:1022A0005F9696963C932E939597F901859194911C
:1022B00090911305989F802D112466517B4FFB014F
:1022C000B19685A3F901A591B4914B2F50E0E82F69
:1022D000F0E04E175F0720F4F90125913491832F28
:1022E000FB01B296899F802D112485A30895AF929A
:1022F000BF92CF92DF92EF92FF920F931F93CF93F3
:10230000DF93182F062FC1E0D3E08AEFD82E9EEF7F
:10231000E92E842F8470C82E842F8270B82E842FCB
:102320008870A82E4170F42E8C2F880F8F5FE80ED6
:10233000CC2081F04D2F400F6C2F610F88E395E08A
:102340000E94F8074C2F400F6D2F610F88E395E036
:102350000E94F807BB2081F0402F4D1B6C2F610FAE
:1023600088E395E00E94F807402F4C1B6D2F610F0A
:1023700088E395E00E94F807AA2081F04C2F400FD7
:10238000612F6D1B88E395E00E94F8074D2F400FE9
:10239000612F6C1B88E395E00E94F807FF2081F015
:1023A000402F4C1B612F6D1B88E395E00E94F807BE
:1023B000402F4D1B612F6C1B88E395E00E94F807AE
:1023C000CD1744F4E7FC04C0D150D394D394ED0C62
:1023D000CF5FAACFDF91CF911F910F91FF90EF9028
:1023E000DF90CF90BF90AF9008950F931F93CF933E
:1023F000DF93182F062FD42FC0E0CD174CF44C2FAD
:10240000400F612F88E395E00E94F807CF5FF5CF7A
:10241000DF91CF911F910F9108959F92AF92BF923C
:10242000CF92DF92EF92FF920F931F93CF93DF93A0
:10243000F82EE62EB22E03E0020FD0E0C3E08AEFC2
:10244000C82E1EEF842F8170982EAA24A394A20E6A
:102450004270D42EDF5F802F8B19180F992081F0E6
:102460004C2F440F4A0D6E2D6C1B8D2F8F0D0E942B
:10247000F511402F6E2D6D1B8C2F8F0D0E94F511C5
:10248000DD2081F04C2F440F4A0D6E2D6C1B8F2DDB
:102490008D1B0E94F511402F6E2D6D1B8F2D8C1BF7
:1024A0000E94F511DC1744F417FD04C0C150C39419
:1024B000C3941C0D0E5FCECFDF91CF911F910F9172
:1024C000FF90EF90DF90CF90BF90AF909F900895D6
:1024D0008091060590910705892BB1F180910E0539
:1024E0008F7169F584E10E946E05BC01990F880B1C
:1024F000990B0E94391C26EE3FE34EEC50E40E94FB
:10250000741C0E94E21D9B017093050560930405F5
:10251000672B91F084E080930305E6E0F5E080E02E
:10252000419151912417350718F4809303050895BC
:102530008F5F8430A9F703C08FEF809303058091EC
:102540000E058F5F80930E050895CF93DF9300D023
:1025500000D000D0CDB7DEB7789484B5826084BD5A
:1025600084B5816084BD85B5826085BD85B5816097
:1025700085BD80916E00816080936E001092810015
:1025800080918100826080938100809181008160D0
:102590008093810080918000816080938000809191
:1025A000B10084608093B1008091B000816080931D
:1025B000B00080917A00846080937A0080917A00E4
:1025C000826080937A0080917A00816080937A00A3
:1025D00080917A00806880937A001092C10082E333
:1025E0008093690581E090E0A0E0B0E0809365050C
:1025F00090936605A0936705B09368058FEF80936D
:102600005A05E0E8F7E7259134912130304C09F084
:1026100049C0E6E9F7E7E491E0934305E7E9F7E726
:10262000E491E093EE04E8E9F7E7E491E093EF0446
:10263000E9E9F7E7859194919093F1048093F00490
:10264000EBE9F7E7859194919093F3048093F2047A
:1026500088E080931505EEE9F7E7E491E09314052F
:10266000EFE9F7E7E491E0935A05E0EAF7E78591AF
:1026700094919093070580930605E2EAF7E7859128
:1026800094919093090580930805E4EAF7E7859112
:10269000949190930B0580930A05E6EAF7E78591FC
:1026A00094912CC09CE3909343051092EE04809388
:1026B000EF0480E293E09093F1048093F00484EDC2
:1026C00093E09093F3048093F20488E080931505DF
:1026D000809314058CEA9DE090930705809306058E
:1026E0008EED9DE0909309058093080584E79EE0B8
:1026F00090930B0580930A058CE39FE090930D0562
:1027000080930C0511E01093EA046FEF70E085E010
:102710000E940F0588E08093F40489E08093F5041B
:1027200087E08093F60486E08093F70404E000934A
:10273000F80482E08093F90481E18093FA040E9416
:102740001F0E8CE39FE09093050580930405009392
:10275000030510930E058BE0809346058DE0809372
:10276000450580E1809347058EE0809349058FE021
:102770008093480510934005109358051092590511
:1027800010933F05E0EAF4E0E491EF5FE0933C054D
:10279000E1EAF4E0E491EF5FE0933D0582EA94E042
:1027A00090935705809356051FB7F8948091C60201
:1027B000811127C0E7E9F6E08491EBEAF6E0949115
:1027C000E82FF0E0EE0FFF1FEC58FF4FA591B491FA
:1027D000EC91E92321F461E08AE00E94A30461E026
:1027E0008AE00E94D3048CB580618CBD8CB5806476
:1027F0008CBD61E08DE00E94D30461E08BE00E941B
:10280000D3048091C6028F5F8093C6021FBF8CB530
:102810008F7D8CBD8CB58C7F81608CBD8DB58160CA
:102820008DBD8CB58C608CBD61E0809146050E94A9
:10283000D30461E0809145050E94D30461E080915A
:1028400047050E94D3048091490518161CF461E0E5
:102850000E94D3048091480518161CF461E00E9480
:10286000D30480914905181674F460E00E94A30413
:102870006AE070E080E090E00E94AA0561E080914B
:1028800049050E94A30480914505082E000C990B70
:10289000FC01E357F94FE491F0E0EE0FFF1FE2581F
:1028A000FF4F2591349130934D0520934C05FC0149
:1028B000EF55F94FE491E093530580914605082EBA
:1028C000000C990BFC01E357F94FE491F0E0EE0F97
:1028D000FF1FE258FF4F2591349130934B05209311
:1028E0004A05FC01EF55F94FE491E09352058091C0
:1028F0004805082E000C990BFC01E357F94FE491B1
:10290000F0E0EE0FFF1FE258FF4F25913491309316
:102910004F0520934E05FC01EF55F94FE491E093EC
:10292000540580914705082E000C990BFC01E357D4
:10293000F94FE491F0E0EE0FFF1FE258FF4F2591B1
:1029400034913093510520935005FC01EF55F94F18
:10295000E491E093550581E20E94730E84E10E94A8
:10296000730E8091430587FF03C08FE78093430573
:102970008091430580680E94730E80E20E94730E6E
:102980008CE00E94730E0E94920E81E080931305EA
:1029900084E08093370580E790E090931F05809353
:1029A0001E0560E080E00E943C1161E070E083E081
:1029B0000E940F058091B100887F81608093B100F3
:1029C000F89410928000109281001092850010926D
:1029D000840088E191E09093890080938800809141
:1029E0008100886080938100809181008160809364
:1029F000810080916F00826080936F0078940E94C4
:102A0000681280910005813019F4109214050BC0F2
:102A1000809103058823C9F340E068E870E08FE007
:102A200095E00E948206E3E2F1E0E491EF5FE0933B
:102A30003C05E4E2F1E0E491EF5FE0933D0585E2DF
:102A400091E0909357058093560580915A0588230D
:102A500009F4CAC081E08093400510923F051092AE
:102A60003E0510920205809358058093590502E2B5
:102A700011E06CE0F62E0E945D098823E1F3F80175
:102A80008491882319F0E0903D0501C0E12C22EBF0
:102A900030E040E060E088E395E00E94B6064CE05C
:102AA0004E0D22EC32E060E088E395E00E94B6062D
:102AB00010924105F092420582E291E00E94D20E0E
:102AC00080913C05982F990F890F81958D5A80939D
:102AD000410580913D05982F990F890F8195835D60
:102AE0008093420580915B0584FF03C08EEA90E0ED
:102AF00002C08AEA90E00E94F30E80913C05982F74
:102B0000990F890F81958D5A8093410580914205D7
:102B10008F5F8093420580911405882319F086EA1F
:102B200090E002C082EA90E00E94F30E80913C05A2
:102B3000982F990F890F81958D5A80934105809127
:102B400042058F5F809342058EE990E00E94F30E6C
:102B5000809100058130C9F4809114058F5F6091E8
:102B6000150587FD09C0082E000C990B70E06F5FFA
:102B70007F4F0E942D1E682F6093140540E068E48B
:102B800074E08FE095E00E9482068091FF0481301E
:102B9000B9F080915A05482F50E060E070E08090D5
:102BA0005B0590905C05A0905D05B0905E05841675
:102BB0009506A606B70608F4CDC38F3F09F4CAC32D
:102BC0008FEF80935A0560E08FE095E00E947106D8
:102BD0001092100540E066E970E08FE095E00E94F9
:102BE000820681E080930205C0900405D09005051F
:102BF000C094D094E12CF12C0E9485054B015C011E
:102C00000E948505A5019401209530954095509529
:102C100060957095809590950E94111E9B01AC0166
:102C2000C701B6010E94111E4B015C018091EB04AB
:102C30009091EC046C01E12CF12C0E948505C60EEC
:102C4000D71EE81EF91EC701B601680D791D8A1D41
:102C50009B1D611571058105910511F00E942E1CC7
:102C6000EE24E394F12C43E0C42ED12C53E2252E24
:102C7000312C22E0822E912C0E945D09882309F4D8
:102C800061C300910801109109010130110509F09B
:102C9000E1C0809100058130E9F480917505909143
:102CA0007605892BB9F065E271E08091710590910C
:102CB00072050E94331F892B69F41093DA02009386
:102CC000D9022BE334E030936F0520936E0580E248
:102CD000809370058091FF048130F9F48091D702D0
:102CE0009091D8028130910509F03CC3909209017E
:102CF000809208018091D7029091D802892B69F4C3
:102D000010920901109208018FE294E090936F05F0
:102D100080936E0580E28093700586E391E00E94C7
:102D2000380F8EE791E00E94380F81E491E00E9415
:102D3000380F8DE491E00E94380F88E591E00E9401
:102D4000380F87E691E00E94380F64E771E088E36E
:102D500095E00E941C048091C4029091C5020E94DB
:102D60004B0F01E020E044E260E288E395E00E943E
:102D7000870880E891E00E94380F8091FE0481303E
:102D800009F58091D7029091D8020196843091057F
:102D90000CF4F6C21092D8021092D70286E991E0A4
:102DA0000E94840F6091750570917605CE010196A1
:102DB0000E94B90DCE0101960E94BA0F89819A81B5
:102DC0000E94E71A8091FC048130F9F48091D702C7
:102DD0009091D802019797FFD8C2D092D802C092A2
:102DE000D70289E991E00E94840F60917505709186
:102DF0007605CE0101960E94B90DCE0101960E9482
:102E0000BA0F89819A810E94E71A8091FB04813070
:102E100009F4C0C28091FD04813009F4D0C2209130
:102E2000D9023091DA028091D702682F660F680FBD
:102E3000660F665F2130310529F42091D50245E205
:102E400054E004C02091D5024BE154E081E00E949F
:102E5000F70F78C20230110539F58CE991E00E9434
:102E6000380F8EE791E00E94380F8FEA91E00E94C0
:102E7000380F85EC91E00E94380F80ED91E00E94C0
:102E8000380F8EE791E00E94380F80EE91E00E94AB
:102E9000380F8DEE91E00E94380F40E069E188E341
:102EA00095E00E94F80723C00330110519F586EF5D
:102EB00091E00E94380F88E092E00E94380F88E18C
:102EC00092E00E94380F8EE791E00E94380F88E26E
:102ED00092E00E94380F87E392E00E94380F89E465
:102EE00092E00E94380F85E592E00E94380F8091B1
:102EF000FF0422C28091060190910701019709F019
:102F00008DC180910105813009F46EC22091FB04CE
:102F10008FEF820F8E3F18F0A12CB12C26C040916C
:102F2000D3025091D4024F5F5F4F5093D40240932D
:102F3000D30280910201909103011816190664F7DB
:102F40004B3051050CF455C202978F3F3FEF93076A
:102F500009F050C21092030110920201F092D602C1
:102F6000E092D502AA24A394B12C3091FD048FEFF6
:102F7000830F8E3F70F54091D3025091D4024F5F82
:102F80005F4F5093D4024093D302809102019091FD
:102F900003018C349105ECF44B3051052CF0019673
:102FA00090930301809302018091020190910301AB
:102FB00001968D34910514F08CE490E09093030118
:102FC000809302011092D6021092D502AA24A394F3
:102FD000B12C2F3F09F013C21092D4021092D302E9
:102FE0008091FF04813069F48091D1029091D202E6
:102FF0000196823091050CF406C21092D202109212
:10300000D10200E010E080910401909105010817C1
:1030100019074CF462E672E088E395E00E941C0414
:103020000F5F1F4FF0CF01E020E040E061E488E354
:1030300095E00E94870886E4809341056091CF0265
:103040007091D00288E395E00E94C51040915B0525
:103050002091D9023091DA028091D1029091D2026E
:1030600040FD22C0AA94AB28F9F42130310571F457
:10307000009729F42091D50245E254E025C001973C
:1030800049F52091D50241E154E01EC0009729F492
:103090002091D50247E054E017C00197D9F4209160
:1030A000D5024DEF53E010C02130310509F30097F0
:1030B00029F42091D5024BE154E006C0019751F468
:1030C0002091D50243EF53E060910001809102010D
:1030D0000E94F70F8091CD029091CE02892BE9F4E6
:1030E0000E94CB1BB4010E942D1E9093CC028093B2
:1030F000CB02F092CE02E092CD020E94CB1B6EE496
:1031000070E00E942D1E9093CA028093C90225E0B0
:1031100030E03093C8022093C7026090CB027090D9
:10312000CC024090C7025090C802A090C902B09053
:10313000CA0201E0262D442D6A2D88E395E00E9405
:10314000870882010F5F1F4F1093C8020093C702C8
:10315000809100019091010102970817190794F1DD
:1031600080910201909103019C0121503109A21626
:10317000B30644F107968A159B0524F18091D1028C
:103180009091D20268167906E9F41092CE0210925C
:10319000CD028091CF029091D00201969093D002FF
:1031A0008093CF0240E068E474E08FE095E00E94F5
:1031B00082068DEE93E090936F0580936E0580E21A
:1031C0008093700501331105ECF08091040190911A
:1031D0000501019790930501809304011092CE029E
:1031E0001092CD0240E065EA72E08FE095E00E9427
:1031F0008206E4EEF3E0F0936F05E0936E0580E263
:10320000809370058091040190910501892B09F04C
:1032100099C0109207011092060194C06091CF02EC
:103220007091D0028091C4029091C50286179707D1
:1032300044F47093C5026093C40280E090E00E9461
:103240003A1D22EC32E042EF69EF88E395E00E94FC
:10325000B6061CE21093410586E08093420584E6A1
:1032600092E00E94380F109341056FE672E088E308
:1032700095E00E941C048091CF029091D0020E94A0
:103280004B0F88E180934205109241052091CF02B7
:103290003091D0028091C4029091C502281739075D
:1032A00019F487E792E002C08EE791E00E94380FA0
:1032B00068E872E088E395E00E941C048091C402F3
:1032C0009091C5020E944B0F8EE791E00E94380F4B
:1032D0006FE872E088E395E00E941C04909100057D
:1032E00080910105913009F093C01092D0021092A4
:1032F000CF02D0920501C0920401309203012092C6
:1033000002012EE130E03093010120930001109280
:10331000CE021092CD021092D2021092D102F092FF
:103320000701E0920601EDEAF2E0F0936F05E09309
:103330006E0590E290937005813021F4F0920901BE
:10334000E092080180E090E0892B09F495CC0E947E
:1033500000008FCC80910105813009F08CCB0E9458
:10336000030F89CB8230910529F4D0920901C092D4
:103370000801C0CC039709F0BDCC0E94030FBACC62
:103380009093D8028093D70209CD9093D80280936E
:10339000D70227CD85EA92E00E94840F60917505DF
:1033A00070917605CE0101960E94B90DCE0101966D
:1033B0000E94BA0F89819A810E94E71A2BCD83E37C
:1033C00091E00E94840F6091750570917605CE01A1
:1033D00001960E94B90DCE0101960E94BA0F898113
:1033E0009A810E94E71A1BCD1092050110920401E8
:1033F0008DCD01979093030180930201AFCD3F3FA4
:1034000009F0EECDE9CD9093D2028093D102F9CDAF
:10341000813009F097CF1092D0021092CF02D09253
:103420000501C092040130920301209202012EE1B5
:1034300030E030930101209300011092CE021092EF
:10344000CD021092D2021092D102F0920701E092C6
:10345000060174CF80917105909172050C94E71A62
:1034600010923B0510923A058DE191E09093390559
:103470008093380580E090E00E94321D90E09093A8
:10348000C5028093C402E1E7F5E011821082138245
:1034900012821582148240E150E068EA72E0CF01A6
:1034A0000C94EA03CF93DF938230910510F482E00D
:1034B00090E0E0917905F0917A0520E030E0C0E0FD
:1034C000D0E0309711F14081518148175907C0F081
:1034D0004817590761F482819381209719F09B83E3
:1034E0008A832BC090937A058093790526C0211595
:1034F000310519F04217530718F49A01BE01DF0194
:10350000EF010280F381E02DDCCF2115310509F1B7
:10351000281B390B2430310590F412968D919C9123
:1035200013976115710521F0FB019383828304C019
:1035300090937A0580937905FD01329644C0FD0190
:10354000E20FF31F81939193225031092D933C9305
:103550003AC02091770530917805232B41F42091D2
:103560000D0130910E01309378052093770520915D
:103570000B0130910C012115310541F42DB73EB7F7
:1035800040910F0150911001241B350BE0917705FC
:10359000F0917805E217F307A0F42E1B3F0B2817D4
:1035A000390778F0AC014E5F5F4F2417350748F0BC
:1035B0004E0F5F1F50937805409377058193919349
:1035C00002C0E0E0F0E0CF01DF91CF9108950F93CA
:1035D0001F93CF93DF93009709F48CC0FC013297BF
:1035E000138212820091790510917A050115110557
:1035F00081F420813181820F931F209177053091D2
:1036000078052817390779F5F0937805E093770561
:1036100071C0D80140E050E0AE17BF0750F41296D9
:103620002D913C911397AD012115310509F1D90177
:10363000F3CF9D01DA013383228360817181860F8C
:10364000971F8217930769F4EC0128813981260FAF
:10365000371F2E5F3F4F318320838A819B81938365
:103660008283452B29F4F0937A05E093790542C0D3
:103670001396FC93EE931297ED01499159919E0197
:10368000240F351FE217F30771F480819181840FB5
:10369000951F029611969C938E9382819381139627
:1036A0009C938E931297E0E0F0E0D80112968D91F2
:1036B0009C911397009719F0F8018C01F6CF8D912A
:1036C0009C9198012E5F3F4F820F931F20917705A9
:1036D000309178052817390769F4309729F410924A
:1036E0007A051092790502C0138212821093780530
:1036F00000937705DF91CF911F910F9108958F92DD
:103700009F92AF92BF92CF92DF92EF92FF92CF93B0
:10371000DF93EC01688179818A819B816115710554
:103720008105910521F464E279ED8BE597E02DE1C7
:1037300033EF41E050E00E94481D49015A019B01CE
:10374000AC01A7EAB1E40E94671D6B017C01ACEEFD
:10375000B4EFA50194010E94751DDC01CB018C0D15
:103760009D1DAE1DBF1DB7FF03C00197A109B04845
:1037700088839983AA83BB839F77DF91CF91FF9042
:10378000EF90DF90CF90BF90AF909F908F90089573
:103790000E947F1B089581E191E00E947F1B0895A4
:1037A000A0E0B0E08093110190931201A093130167
:1037B000B093140108958F929F92AF92BF92CF92CF
:1037C000DF92EF92FF92CF93DF93EC0168817981D2
:1037D0008A819B81611571058105910521F464E25F
:1037E00079ED8BE597E02DE133EF41E050E00E9469
:1037F000481D49015A019B01AC01A7EAB1E40E94AE
:10380000671D6B017C01ACEEB4EFA50194010E9431
:10381000751DDC01CB018C0D9D1DAE1DBF1DB7FFBD
:1038200003C00197A109B04888839983AA83BB8309
:10383000BC01CD019F77DF91CF91FF90EF90DF909A
:10384000CF90BF90AF909F908F9008950E94DB1B08
:10385000089585E191E00E94DB1B089560931501B6
:103860007093160180931701909318010895E894BE
:1038700009C097FB3EF490958095709561957F4FB8
:103880008F4F9F4F9923A9F0F92F96E9BB27939566
:10389000F695879577956795B795F111F8CFFAF476
:1038A000BB0F11F460FF1BC06F5F7F4F8F4F9F4FA7
:1038B00016C0882311F096E911C0772321F09EE805
:1038C000872F762F05C0662371F096E8862F70E06B
:1038D00060E02AF09A95660F771F881FDAF7880F45
:1038E0009695879597F908950E94871C0C94F81C6B
:1038F0000E94EA1C38F00E94F11C20F0952311F080
:103900000C94E11C0C94E71C11240C942C1D0E94B7
:10391000091D70F3959FC1F3950F50E0551F629FED
:10392000F001729FBB27F00DB11D639FAA27F00D18
:10393000B11DAA1F649F6627B00DA11D661F829F3F
:103940002227B00DA11D621F739FB00DA11D621F24
:10395000839FA00D611D221F749F3327A00D611D41
:10396000231F849F600D211D822F762F6A2F112423
:103970009F5750409AF0F1F088234AF0EE0FFF1F56
:10398000BB1F661F771F881F91505040A9F79E3FAD
:10399000510580F00C94E11C0C942C1D5F3FE4F366
:1039A000983ED4F3869577956795B795F795E79503
:1039B0009F5FC1F7FE2B880F911D9695879597F90C
:1039C000089597F99F6780E870E060E008959FEFA1
:1039D00080EC089500240A941616170618060906A6
:1039E000089500240A941216130614060506089575
:1039F000092E0394000C11F4882352F0BB0F40F4FD
:103A0000BF2B11F460FF04C06F5F7F4F8F4F9F4F3C
:103A1000089557FD9058440F551F59F05F3F71F0BE
:103A20004795880F97FB991F61F09F3F79F0879525
:103A30000895121613061406551FF2CF4695F1DFAE
:103A400008C0161617061806991FF1CF869571053E
:103A5000610508940895E894BB2766277727CB0172
:103A600097F90895F999FECF92BD81BDF89A9927EB
:103A700080B50895262FF999FECF1FBA92BD81BD5A
:103A800020BD0FB6F894FA9AF99A0FBE01960895E0
:103A9000052E97FB1EF400940E945F1D57FD07D072
:103AA0000E94B11D07FC03D04EF40C945F1D50958D
:103AB0004095309521953F4F4F4F5F4F089590951A
:103AC0008095709561957F4F8F4F9F4F08950E940D
:103AD000D31DA59F900DB49F900DA49F800D911DA7
:103AE00011240895B7FF0C94671D0E94671D821B67
:103AF000930B08952F923F924F925F926F927F9215
:103B00008F929F92AF92BF92CF92DF92EF92FF92ED
:103B10000F931F93CF93DF93CDB7DEB7CA1BDB0B99
:103B20000FB6F894DEBF0FBECDBF09942A8839883E
:103B300048885F846E847D848C849B84AA84B98445
:103B4000C884DF80EE80FD800C811B81AA81B98151
:103B5000CE0FD11D0FB6F894DEBF0FBECDBFED0165
:103B60000895A1E21A2EAA1BBB1BFD010DC0AA1FBE
:103B7000BB1FEE1FFF1FA217B307E407F50720F0D6
:103B8000A21BB30BE40BF50B661F771F881F991F51
:103B90001A9469F760957095809590959B01AC019A
:103BA000BD01CF010895A29FB001B39FC001A39FA3
:103BB000700D811D1124911DB29F700D811D112466
:103BC000911D08950E94111D88F09F5798F0B92FFC
:103BD0009927B751B0F0E1F0660F771F881F991F42
:103BE0001AF0BA95C9F714C0B13091F00E942B1D9C
:103BF000B1E008950C942B1D672F782F8827B85FAC
:103C000039F0B93FCCF3869577956795B395D9F799
:103C10003EF490958095709561957F4F8F4F9F4FA3
:103C20000895DB018F939F930E94671DBF91AF9111
:103C3000A29F800D911DA39F900DB29F900D112406
:103C40000895991B79E004C0991F961708F0961BF8
:103C5000881F7A95C9F78095089597FB072E16F46B
:103C6000009407D077FD09D00E94411E07FC05D0C3
:103C70003EF4909581959F4F0895709561957F4F83
:103C80000895AA1BBB1B51E107C0AA1FBB1FA617A3
:103C9000B70710F0A61BB70B881F991F5A95A9F7F5
:103CA00080959095BC01CD010895EE0FFF1F059002
:103CB000F491E02D0994A0E0B0E0E1E6FEE10C947F
:103CC0007E1DEC01009721F4CB010E94521AB8C06E
:103CD000FC01E60FF71F9C0122503109E217F307A0
:103CE00008F4ACC0D9010D911C9111970617170764
:103CF000B0F00530110508F49FC0C801049786177D
:103D0000970708F499C002501109061B170B01937D
:103D100011936D937C93CF010E94E71A8DC05B01D4
:103D2000A01AB10A4C01800E911EA0917905B091A4
:103D30007A0540E050E0E12CF12C109709F44AC0DC
:103D4000A815B905D1F56D907C901197630182E0BB
:103D5000C80ED11CCA14DB0480F1A3014A195B0907
:103D60006A0182E0C80ED11C1296BC90129713967D
:103D7000AC91B5E0CB16D10440F0B282A38351835D
:103D80004083D9016D937C930AC00E5F1F4FC3011E
:103D9000800F911FF90191838083EB2DFA2FE1149D
:103DA000F10431F0D7011396FC93EE93129744C0BF
:103DB000F0937A05E09379053FC08D919C9111971E
:103DC0004817590708F4AC017D0112960D90BC917B
:103DD000A02DB3CF8091770590917805881599052E
:103DE000E1F446175707C8F480910B0190910C013C
:103DF000009741F48DB79EB740910F01509110018B
:103E0000841B950BE817F907C8F4F0937805E09345
:103E10007705F901718360830FC0CB010E94521AAC
:103E20007C01009759F0A801BE010E942A1FCE0113
:103E30000E94E71AC70104C0CE0102C080E090E0F2
:103E4000CDB7DEB7EEE00C949A1D81E090E0F894D7
:103E50000C94431FFB01DC0102C001900D92415004
:103E60005040D8F70895FB01DC018D910190801935
:103E70000110D9F3990B0895FB01DC0101900D921B
:103E80000020E1F7089513E0C6E6D3E004C0FE0188
:103E90000E94551E2196C736D107C9F7F894FFCF67
:103EA0001E0023000300010001000100007B0580CB
:103EB000000100000001000000000000002909923C
:103EC00003BE03BD0375707570646E646E6C6672BC
:103ED000746C667274004D61696E206D656E753A22
:103EE000002020204E45572047414D4500202020EE
:103EF0004352454449545300202020484F572054F2
:103F00004F20504C4159002020204558495420470B
:103F1000414D45002020202020202020203A200054
:103F20002020202020202020204152486E2E455560
:103F3000203230313800646E007570004772756E43
:103F4000696F7A6572636120474275696E6F0043DD
:103F50006F64652C6766783A204461726B20417209
:103F600063686F6E004C6F676F3A204E656B6F0031
:103F7000436F6E636570743A2044697A7A793900C8
:103F80005757573A204152484E2E45550015202D7F
:103F9000204D454E55004772756E696F277320702E
:103FA00065636B6973682100456174206361727297
:103FB0006F747320616E6400636F6C6C6563742052
:103FC000706F696E74732E00557365201520746FC1
:103FD000206D61746368004772756E696F27732086
:103FE000636F6C6F7220746F0076656765746162D1
:103FF0006C65732E00456E6A6F7921204D6C656D7E
:104000002100030047414D45204F564552210053A2
:10401000636F72653A2000214E4557204849474852
:104020002053434F52452100486967683A200016E3
:10403000202D2052455354415254202017202D202A
:104040004D454E55006C66003132333435363738C5
:104050003930313233343536000D0A004C4F41448B
:0440600045520000C5
:00000001FF
